{
  "contractName": "Driver",
  "abi": [
    {
      "inputs": [],
      "payable": false,
      "stateMutability": "nonpayable",
      "type": "constructor"
    },
    {
      "constant": true,
      "inputs": [],
      "name": "driverInfo",
      "outputs": [
        {
          "name": "",
          "type": "string"
        },
        {
          "name": "",
          "type": "uint256"
        },
        {
          "name": "",
          "type": "uint256"
        },
        {
          "name": "",
          "type": "uint256"
        },
        {
          "name": "",
          "type": "uint256"
        },
        {
          "name": "",
          "type": "uint256"
        },
        {
          "name": "",
          "type": "uint256"
        },
        {
          "name": "",
          "type": "uint256"
        }
      ],
      "payable": false,
      "stateMutability": "view",
      "type": "function"
    },
    {
      "constant": false,
      "inputs": [
        {
          "name": "FIO",
          "type": "string"
        },
        {
          "name": "accidents",
          "type": "uint256"
        },
        {
          "name": "unpayed_fines",
          "type": "uint256"
        },
        {
          "name": "exp_start",
          "type": "uint256"
        }
      ],
      "name": "driverRegistration",
      "outputs": [],
      "payable": false,
      "stateMutability": "nonpayable",
      "type": "function"
    },
    {
      "constant": false,
      "inputs": [
        {
          "name": "licenseid",
          "type": "uint256"
        },
        {
          "name": "expire_date",
          "type": "uint256"
        },
        {
          "name": "category",
          "type": "uint256"
        }
      ],
      "name": "licenseRegistration",
      "outputs": [],
      "payable": false,
      "stateMutability": "nonpayable",
      "type": "function"
    },
    {
      "constant": false,
      "inputs": [
        {
          "name": "category",
          "type": "uint256"
        },
        {
          "name": "cost",
          "type": "uint256"
        },
        {
          "name": "exploitation",
          "type": "uint256"
        }
      ],
      "name": "vehicleRegistration",
      "outputs": [],
      "payable": false,
      "stateMutability": "nonpayable",
      "type": "function"
    },
    {
      "constant": false,
      "inputs": [],
      "name": "insuranceDeposit",
      "outputs": [],
      "payable": true,
      "stateMutability": "payable",
      "type": "function"
    },
    {
      "constant": false,
      "inputs": [],
      "name": "insuranceAccept",
      "outputs": [],
      "payable": true,
      "stateMutability": "payable",
      "type": "function"
    },
    {
      "constant": false,
      "inputs": [
        {
          "name": "licenseid",
          "type": "uint256"
        }
      ],
      "name": "fineIssue",
      "outputs": [],
      "payable": false,
      "stateMutability": "nonpayable",
      "type": "function"
    },
    {
      "constant": false,
      "inputs": [
        {
          "name": "licenseid",
          "type": "uint256"
        }
      ],
      "name": "finePay",
      "outputs": [],
      "payable": true,
      "stateMutability": "payable",
      "type": "function"
    },
    {
      "constant": false,
      "inputs": [
        {
          "name": "licenseid",
          "type": "uint256"
        }
      ],
      "name": "accidentReg",
      "outputs": [],
      "payable": false,
      "stateMutability": "nonpayable",
      "type": "function"
    },
    {
      "constant": false,
      "inputs": [
        {
          "name": "licenseid",
          "type": "uint256"
        }
      ],
      "name": "insurancePay",
      "outputs": [],
      "payable": true,
      "stateMutability": "payable",
      "type": "function"
    },
    {
      "constant": true,
      "inputs": [],
      "name": "viewdebt",
      "outputs": [
        {
          "name": "",
          "type": "uint256"
        }
      ],
      "payable": false,
      "stateMutability": "view",
      "type": "function"
    },
    {
      "constant": false,
      "inputs": [],
      "name": "insurancecredit",
      "outputs": [],
      "payable": true,
      "stateMutability": "payable",
      "type": "function"
    }
  ],
  "bytecode": "0x6080604052600080557378731d3ca6b7e34ac0f824c42a7cc18a495cabab600960006101000a81548173ffffffffffffffffffffffffffffffffffffffff021916908373ffffffffffffffffffffffffffffffffffffffff16021790555073617f2e2fd72fd9d5503197092ac168c91465e7f2600a60006101000a81548173ffffffffffffffffffffffffffffffffffffffff021916908373ffffffffffffffffffffffffffffffffffffffff160217905550348015620000bf57600080fd5b5060026101a060405190810160405280606060405190810160405280602681526020017fd098d0b2d0b0d0bdd0bed0b220d098d0b2d0b0d0bd20d098d0b2d0b0d0bdd0be81526020017fd0b2d0b8d187000000000000000000000000000000000000000000000000000081525081526020016000815260200160008152602001600081526020016107e28152602001600081526020016000815260200160008152602001600115158152602001600015158152602001600015158152602001600015158152602001735b38da6a701c568545dcfcb03fcb875f56beddc473ffffffffffffffffffffffffffffffffffffffff16815250908060018154018082558091505090600182039060005260206000209060090201600090919290919091506000820151816000019080519060200190620001fe929190620009ed565b506020820151816001015560408201518160020155606082015181600301556080820151816004015560a0820151816005015560c0820151816006015560e082015181600701556101008201518160080160006101000a81548160ff0219169083151502179055506101208201518160080160016101000a81548160ff0219169083151502179055506101408201518160080160026101000a81548160ff0219169083151502179055506101608201518160080160036101000a81548160ff0219169083151502179055506101808201518160080160046101000a81548173ffffffffffffffffffffffffffffffffffffffff021916908373ffffffffffffffffffffffffffffffffffffffff160217905550505050600160056000735b38da6a701c568545dcfcb03fcb875f56beddc473ffffffffffffffffffffffffffffffffffffffff1673ffffffffffffffffffffffffffffffffffffffff1681526020019081526020016000208190555060016002805490500360066000735b38da6a701c568545dcfcb03fcb875f56beddc473ffffffffffffffffffffffffffffffffffffffff1673ffffffffffffffffffffffffffffffffffffffff1681526020019081526020016000208190555060026101a060405190810160405280606060405190810160405280602c81526020017fd0a1d0b5d0bcd0b5d0bdd0bed0b220d0a1d0b5d0bcd0b5d0bd20d0a1d0b5d0bc81526020017fd0b5d0bdd0bed0b2d0b8d187000000000000000000000000000000000000000081525081526020016000815260200160008152602001600081526020016107df815260200160008152602001600081526020016000815260200160001515815260200160001515815260200160001515815260200160001515815260200173ab8483f64d9c6d1ecf9b849ae677dd3315835cb273ffffffffffffffffffffffffffffffffffffffff168152509080600181540180825580915050906001820390600052602060002090600902016000909192909190915060008201518160000190805190602001906200050b929190620009ed565b506020820151816001015560408201518160020155606082015181600301556080820151816004015560a0820151816005015560c0820151816006015560e082015181600701556101008201518160080160006101000a81548160ff0219169083151502179055506101208201518160080160016101000a81548160ff0219169083151502179055506101408201518160080160026101000a81548160ff0219169083151502179055506101608201518160080160036101000a81548160ff0219169083151502179055506101808201518160080160046101000a81548173ffffffffffffffffffffffffffffffffffffffff021916908373ffffffffffffffffffffffffffffffffffffffff16021790555050505060026005600073ab8483f64d9c6d1ecf9b849ae677dd3315835cb273ffffffffffffffffffffffffffffffffffffffff1673ffffffffffffffffffffffffffffffffffffffff168152602001908152602001600020819055506001600280549050036006600073ab8483f64d9c6d1ecf9b849ae677dd3315835cb273ffffffffffffffffffffffffffffffffffffffff1673ffffffffffffffffffffffffffffffffffffffff1681526020019081526020016000208190555060026101a060405190810160405280606060405190810160405280602681526020017fd09fd0b5d182d180d0bed0b220d09fd0b5d182d18020d09fd0b5d182d180d0be81526020017fd0b2d0b8d187000000000000000000000000000000000000000000000000000081525081526020016000815260200160008152602001600081526020016107da8152602001600381526020016000815260200160008152602001600015158152602001600015158152602001600015158152602001600015158152602001734b20993bc481177ec7e8f571cecae8a9e22c02db73ffffffffffffffffffffffffffffffffffffffff1681525090806001815401808255809150509060018203906000526020600020906009020160009091929091909150600082015181600001908051906020019062000818929190620009ed565b506020820151816001015560408201518160020155606082015181600301556080820151816004015560a0820151816005015560c0820151816006015560e082015181600701556101008201518160080160006101000a81548160ff0219169083151502179055506101208201518160080160016101000a81548160ff0219169083151502179055506101408201518160080160026101000a81548160ff0219169083151502179055506101608201518160080160036101000a81548160ff0219169083151502179055506101808201518160080160046101000a81548173ffffffffffffffffffffffffffffffffffffffff021916908373ffffffffffffffffffffffffffffffffffffffff160217905550505050600260056000734b20993bc481177ec7e8f571cecae8a9e22c02db73ffffffffffffffffffffffffffffffffffffffff1673ffffffffffffffffffffffffffffffffffffffff1681526020019081526020016000208190555060016002805490500360066000734b20993bc481177ec7e8f571cecae8a9e22c02db73ffffffffffffffffffffffffffffffffffffffff1673ffffffffffffffffffffffffffffffffffffffff1681526020019081526020016000208190555062000a9c565b828054600181600116156101000203166002900490600052602060002090601f016020900481019282601f1062000a3057805160ff191683800117855562000a61565b8280016001018555821562000a61579182015b8281111562000a6057825182559160200191906001019062000a43565b5b50905062000a70919062000a74565b5090565b62000a9991905b8082111562000a9557600081600090555060010162000a7b565b5090565b90565b612f3a8062000aac6000396000f3fe6080604052600436106100b4576000357c0100000000000000000000000000000000000000000000000000000000900480631cdade79146100b957806331bd942d146100c357806351429476146100cd5780636938079d1461010857806375b5c11e146101ee5780638a534d5d146102af5780638b1e24ca146102dd578063abc075991461032c578063b35ef9321461037b578063ba8e21ce146103b6578063c83eff5d146103e4578063e5ce6f2e1461040f575b600080fd5b6100c1610419565b005b6100cb610a6b565b005b3480156100d957600080fd5b50610106600480360360208110156100f057600080fd5b8101908080359060200190929190505050610cd8565b005b34801561011457600080fd5b506101ec6004803603608081101561012b57600080fd5b810190808035906020019064010000000081111561014857600080fd5b82018360208201111561015a57600080fd5b8035906020019184600183028401116401000000008311171561017c57600080fd5b91908080601f016020809104026020016040519081016040528093929190818152602001838380828437600081840152601f19601f820116905080830192505050505050509192919290803590602001909291908035906020019092919080359060200190929190505050611200565b005b3480156101fa57600080fd5b50610203611552565b604051808060200189815260200188815260200187815260200186815260200185815260200184815260200183815260200182810382528a818151815260200191508051906020019080838360005b8381101561026d578082015181840152602081019050610252565b50505050905090810190601f16801561029a5780820380516001836020036101000a031916815260200191505b50995050505050505050505060405180910390f35b6102db600480360360208110156102c557600080fd5b8101908080359060200190929190505050611914565b005b3480156102e957600080fd5b5061032a6004803603606081101561030057600080fd5b81019080803590602001909291908035906020019092919080359060200190929190505050611d48565b005b34801561033857600080fd5b506103796004803603606081101561034f57600080fd5b81019080803590602001909291908035906020019092919080359060200190929190505050611fed565b005b34801561038757600080fd5b506103b46004803603602081101561039e57600080fd5b810190808035906020019092919050505061220c565b005b6103e2600480360360208110156103cc57600080fd5b81019080803590602001909291905050506126e5565b005b3480156103f057600080fd5b506103f9612aa0565b6040518082815260200191505060405180910390f35b610417612bd0565b005b600115156002600660003373ffffffffffffffffffffffffffffffffffffffff1673ffffffffffffffffffffffffffffffffffffffff1681526020019081526020016000205481548110151561046b57fe5b906000526020600020906009020160080160039054906101000a900460ff16151514151561049857600080fd5b60006001600460003373ffffffffffffffffffffffffffffffffffffffff1673ffffffffffffffffffffffffffffffffffffffff168152602001908152602001600020548154811015156104e857fe5b906000526020600020906004020160020154600a0310156107ec5761016d620151808061016d6107b26002600660003373ffffffffffffffffffffffffffffffffffffffff1673ffffffffffffffffffffffffffffffffffffffff1681526020019081526020016000205481548110151561055f57fe5b906000526020600020906009020160040154030202420381151561057f57fe5b0481151561058957fe5b046014026002600660003373ffffffffffffffffffffffffffffffffffffffff1673ffffffffffffffffffffffffffffffffffffffff168152602001908152602001600020548154811015156105db57fe5b9060005260206000209060090201600501546064026002600660003373ffffffffffffffffffffffffffffffffffffffff1673ffffffffffffffffffffffffffffffffffffffff1681526020019081526020016000205481548110151561063e57fe5b906000526020600020906009020160060154601402600160026001600460003373ffffffffffffffffffffffffffffffffffffffff1673ffffffffffffffffffffffffffffffffffffffff168152602001908152602001600020548154811015156106a557fe5b906000526020600020906004020160020154600a03026001600460003373ffffffffffffffffffffffffffffffffffffffff1673ffffffffffffffffffffffffffffffffffffffff1681526020019081526020016000205481548110151561070957fe5b906000526020600020906004020160020154600a03036001600460003373ffffffffffffffffffffffffffffffffffffffff1673ffffffffffffffffffffffffffffffffffffffff1681526020019081526020016000205481548110151561076d57fe5b90600052602060002090600402016001015402020101036002600660003373ffffffffffffffffffffffffffffffffffffffff1673ffffffffffffffffffffffffffffffffffffffff168152602001908152602001600020548154811015156107d257fe5b906000526020600020906009020160070181905550610a69565b61016d620151808061016d6107b26002600660003373ffffffffffffffffffffffffffffffffffffffff1673ffffffffffffffffffffffffffffffffffffffff1681526020019081526020016000205481548110151561084857fe5b906000526020600020906009020160040154030202420381151561086857fe5b0481151561087257fe5b046014026002600660003373ffffffffffffffffffffffffffffffffffffffff1673ffffffffffffffffffffffffffffffffffffffff168152602001908152602001600020548154811015156108c457fe5b9060005260206000209060090201600501546064026002600660003373ffffffffffffffffffffffffffffffffffffffff1673ffffffffffffffffffffffffffffffffffffffff1681526020019081526020016000205481548110151561092757fe5b906000526020600020906009020160060154601402600180600460003373ffffffffffffffffffffffffffffffffffffffff1673ffffffffffffffffffffffffffffffffffffffff1681526020019081526020016000205481548110151561098b57fe5b906000526020600020906004020160020154600a036001600460003373ffffffffffffffffffffffffffffffffffffffff1673ffffffffffffffffffffffffffffffffffffffff168152602001908152602001600020548154811015156109ee57fe5b90600052602060002090600402016001015402020101036002600660003373ffffffffffffffffffffffffffffffffffffffff1673ffffffffffffffffffffffffffffffffffffffff16815260200190815260200160002054815481101515610a5357fe5b9060005260206000209060090201600701819055505b565b600960009054906101000a900473ffffffffffffffffffffffffffffffffffffffff1673ffffffffffffffffffffffffffffffffffffffff163373ffffffffffffffffffffffffffffffffffffffff16141515610b56576040517f08c379a00000000000000000000000000000000000000000000000000000000081526004018080602001828103825260298152602001807fd092d18b20d0bdd0b520d18fd0b2d0bbd18fd0b5d182d0b5d181d18c20d0b1d081526020017fb0d0bdd0bad0bed0bc000000000000000000000000000000000000000000000081525060400191505060405180910390fd5b600a60009054906101000a900473ffffffffffffffffffffffffffffffffffffffff1673ffffffffffffffffffffffffffffffffffffffff16316000540334141515610c30576040517f08c379a00000000000000000000000000000000000000000000000000000000081526004018080602001828103825260258152602001807fd09dd183d0b6d0bdd0be20d0b1d0bed0bbd18cd188d0b520d0b7d0bed0bbd0be81526020017fd182d0b02100000000000000000000000000000000000000000000000000000081525060400191505060405180910390fd5b600a60009054906101000a900473ffffffffffffffffffffffffffffffffffffffff1673ffffffffffffffffffffffffffffffffffffffff166108fc600a60009054906101000a900473ffffffffffffffffffffffffffffffffffffffff1673ffffffffffffffffffffffffffffffffffffffff1631600054039081150290604051600060405180830381858888f19350505050158015610cd5573d6000803e3d6000fd5b50565b6001600560003373ffffffffffffffffffffffffffffffffffffffff1673ffffffffffffffffffffffffffffffffffffffff16815260200190815260200160002054141515610db5576040517f08c379a000000000000000000000000000000000000000000000000000000000815260040180806020018281038252603a8152602001807fd092d18b20d0bdd0b520d18fd0b2d0bbd18fd0b5d182d0b5d181d18c20d181d081526020017fbed182d180d183d0b4d0bdd0b8d0bad0bed0bc20d094d09fd0a100000000000081525060400191505060405180910390fd5b6002600660006008600085815260200190815260200160002060009054906101000a900473ffffffffffffffffffffffffffffffffffffffff1673ffffffffffffffffffffffffffffffffffffffff1673ffffffffffffffffffffffffffffffffffffffff16815260200190815260200160002054815481101515610e3657fe5b906000526020600020906009020160080160049054906101000a900473ffffffffffffffffffffffffffffffffffffffff1673ffffffffffffffffffffffffffffffffffffffff166008600083815260200190815260200160002060009054906101000a900473ffffffffffffffffffffffffffffffffffffffff1673ffffffffffffffffffffffffffffffffffffffff16141515610f89576040517f08c379a00000000000000000000000000000000000000000000000000000000081526004018080602001828103825260518152602001807fd09dd0b5d18220d0b2d0bed0b4d0b8d182d0b5d0bbd18f20d18120d0b4d0b0d081526020017fbdd0bdd18bd0bc20d0bdd0bed0bcd0b5d180d0bed0bc20d183d0b4d0bed181d181526020017f82d0bed0b2d0b5d180d0b5d0bdd0b8d18f00000000000000000000000000000081525060600191505060405180910390fd5b60016002600660006008600086815260200190815260200160002060009054906101000a900473ffffffffffffffffffffffffffffffffffffffff1673ffffffffffffffffffffffffffffffffffffffff1673ffffffffffffffffffffffffffffffffffffffff1681526020019081526020016000205481548110151561100c57fe5b906000526020600020906009020160050154016002600660006008600086815260200190815260200160002060009054906101000a900473ffffffffffffffffffffffffffffffffffffffff1673ffffffffffffffffffffffffffffffffffffffff1673ffffffffffffffffffffffffffffffffffffffff168152602001908152602001600020548154811015156110a057fe5b90600052602060002090600902016005018190555060006002600660006008600086815260200190815260200160002060009054906101000a900473ffffffffffffffffffffffffffffffffffffffff1673ffffffffffffffffffffffffffffffffffffffff1673ffffffffffffffffffffffffffffffffffffffff1681526020019081526020016000205481548110151561113857fe5b9060005260206000209060090201600701541415156111fd5760016002600660006008600086815260200190815260200160002060009054906101000a900473ffffffffffffffffffffffffffffffffffffffff1673ffffffffffffffffffffffffffffffffffffffff1673ffffffffffffffffffffffffffffffffffffffff168152602001908152602001600020548154811015156111d457fe5b906000526020600020906009020160080160016101000a81548160ff0219169083151502179055505b50565b6000600560003373ffffffffffffffffffffffffffffffffffffffff1673ffffffffffffffffffffffffffffffffffffffff168152602001908152602001600020541415156112dd576040517f08c379a000000000000000000000000000000000000000000000000000000000815260040180806020018281038252602c8152602001807fd092d18b20d183d0b6d0b520d0b7d0b0d180d0b5d0b3d0b8d181d182d180d0b881526020017fd180d0bed0b2d0b0d0bdd18b000000000000000000000000000000000000000081525060400191505060405180910390fd5b60026101a060405190810160405280868152602001600081526020016000815260200160008152602001838152602001858152602001848152602001600081526020016000151581526020016000151581526020016000151581526020016000151581526020013373ffffffffffffffffffffffffffffffffffffffff168152509080600181540180825580915050906001820390600052602060002090600902016000909192909190915060008201518160000190805190602001906113a5929190612e69565b506020820151816001015560408201518160020155606082015181600301556080820151816004015560a0820151816005015560c0820151816006015560e082015181600701556101008201518160080160006101000a81548160ff0219169083151502179055506101208201518160080160016101000a81548160ff0219169083151502179055506101408201518160080160026101000a81548160ff0219169083151502179055506101608201518160080160036101000a81548160ff0219169083151502179055506101808201518160080160046101000a81548173ffffffffffffffffffffffffffffffffffffffff021916908373ffffffffffffffffffffffffffffffffffffffff1602179055505050506002600560003373ffffffffffffffffffffffffffffffffffffffff1673ffffffffffffffffffffffffffffffffffffffff16815260200190815260200160002081905550600160028054905003600660003373ffffffffffffffffffffffffffffffffffffffff1673ffffffffffffffffffffffffffffffffffffffff1681526020019081526020016000208190555050505050565b606060008060008060008060006002600660003373ffffffffffffffffffffffffffffffffffffffff1673ffffffffffffffffffffffffffffffffffffffff168152602001908152602001600020548154811015156115ad57fe5b90600052602060002090600902016000016002600660003373ffffffffffffffffffffffffffffffffffffffff1673ffffffffffffffffffffffffffffffffffffffff1681526020019081526020016000205481548110151561160c57fe5b9060005260206000209060090201600101546002600660003373ffffffffffffffffffffffffffffffffffffffff1673ffffffffffffffffffffffffffffffffffffffff1681526020019081526020016000205481548110151561166c57fe5b9060005260206000209060090201600201546002600660003373ffffffffffffffffffffffffffffffffffffffff1673ffffffffffffffffffffffffffffffffffffffff168152602001908152602001600020548154811015156116cc57fe5b9060005260206000209060090201600301546002600660003373ffffffffffffffffffffffffffffffffffffffff1673ffffffffffffffffffffffffffffffffffffffff1681526020019081526020016000205481548110151561172c57fe5b9060005260206000209060090201600401546002600660003373ffffffffffffffffffffffffffffffffffffffff1673ffffffffffffffffffffffffffffffffffffffff1681526020019081526020016000205481548110151561178c57fe5b9060005260206000209060090201600501546002600660003373ffffffffffffffffffffffffffffffffffffffff1673ffffffffffffffffffffffffffffffffffffffff168152602001908152602001600020548154811015156117ec57fe5b9060005260206000209060090201600601546002600660003373ffffffffffffffffffffffffffffffffffffffff1673ffffffffffffffffffffffffffffffffffffffff1681526020019081526020016000205481548110151561184c57fe5b906000526020600020906009020160070154878054600181600116156101000203166002900480601f0160208091040260200160405190810160405280929190818152602001828054600181600116156101000203166002900480156118f35780601f106118c8576101008083540402835291602001916118f3565b820191906000526020600020905b8154815290600101906020018083116118d657829003601f168201915b50505050509750975097509750975097509750975097509091929394959697565b6002600660006008600085815260200190815260200160002060009054906101000a900473ffffffffffffffffffffffffffffffffffffffff1673ffffffffffffffffffffffffffffffffffffffff1673ffffffffffffffffffffffffffffffffffffffff1681526020019081526020016000205481548110151561199557fe5b906000526020600020906009020160080160049054906101000a900473ffffffffffffffffffffffffffffffffffffffff1673ffffffffffffffffffffffffffffffffffffffff163373ffffffffffffffffffffffffffffffffffffffff16141515611ab5576040517f08c379a000000000000000000000000000000000000000000000000000000000815260040180806020018281038252605b8152602001807fd092d18b20d0b2d0b2d0b5d0bbd0b820d187d183d0b6d0bed0b920d0bdd0bed081526020017fbcd0b5d18020d0b2d0bed0b4d0b8d182d0b5d0bbd18cd181d0bad0bed0b3d0be81526020017f20d183d0b4d0bed181d182d0bed0b2d0b5d180d0b5d0bdd0b8d18f000000000081525060600191505060405180910390fd5b42600760006008600085815260200190815260200160002060009054906101000a900473ffffffffffffffffffffffffffffffffffffffff1673ffffffffffffffffffffffffffffffffffffffff1673ffffffffffffffffffffffffffffffffffffffff168152602001908152602001600020541015611c3c57600a34141515611bcd576040517f08c379a00000000000000000000000000000000000000000000000000000000081526004018080602001828103825260278152602001807fd09ed0bfd0bbd0b0d182d0b020d188d182d180d0b0d184d0b020d181d182d0be81526020017fd0b8d1822031300000000000000000000000000000000000000000000000000081525060400191505060405180910390fd5b600960009054906101000a900473ffffffffffffffffffffffffffffffffffffffff1673ffffffffffffffffffffffffffffffffffffffff166108fc600a9081150290604051600060405180830381858888f19350505050158015611c36573d6000803e3d6000fd5b50611d45565b600534141515611cda576040517f08c379a00000000000000000000000000000000000000000000000000000000081526004018080602001828103825260268152602001807fd09ed0bfd0bbd0b0d182d0b020d188d182d180d0b0d184d0b020d181d182d0be81526020017fd0b8d1822035000000000000000000000000000000000000000000000000000081525060400191505060405180910390fd5b600960009054906101000a900473ffffffffffffffffffffffffffffffffffffffff1673ffffffffffffffffffffffffffffffffffffffff166108fc60059081150290604051600060405180830381858888f19350505050158015611d43573d6000803e3d6000fd5b505b50565b6000600560003373ffffffffffffffffffffffffffffffffffffffff1673ffffffffffffffffffffffffffffffffffffffff1681526020019081526020016000205414151515611e26576040517f08c379a000000000000000000000000000000000000000000000000000000000815260040180806020018281038252602a8152602001807fd092d18b20d0bdd0b520d0b7d0b0d180d0b5d0b3d0b8d181d182d180d0b8d18081526020017fd0bed0b2d0b0d0bdd18b0000000000000000000000000000000000000000000081525060400191505060405180910390fd5b826002600660003373ffffffffffffffffffffffffffffffffffffffff1673ffffffffffffffffffffffffffffffffffffffff16815260200190815260200160002054815481101515611e7557fe5b906000526020600020906009020160010181905550816002600660003373ffffffffffffffffffffffffffffffffffffffff1673ffffffffffffffffffffffffffffffffffffffff16815260200190815260200160002054815481101515611ed957fe5b906000526020600020906009020160020181905550806002600660003373ffffffffffffffffffffffffffffffffffffffff1673ffffffffffffffffffffffffffffffffffffffff16815260200190815260200160002054815481101515611f3d57fe5b90600052602060002090600902016003018190555080600360003373ffffffffffffffffffffffffffffffffffffffff1673ffffffffffffffffffffffffffffffffffffffff16815260200190815260200160002081905550336008600085815260200190815260200160002060006101000a81548173ffffffffffffffffffffffffffffffffffffffff021916908373ffffffffffffffffffffffffffffffffffffffff160217905550505050565b82600360003373ffffffffffffffffffffffffffffffffffffffff1673ffffffffffffffffffffffffffffffffffffffff168152602001908152602001600020541415156120ef576040517f08c379a000000000000000000000000000000000000000000000000000000000815260040180806020018281038252604b8152602001807fd092d18b20d0bdd0b520d0bed0b1d0bbd0b0d0b4d0b0d0b5d182d0b520d0bfd181526020017f80d0b0d0b2d0b0d0bcd0b820d0b4d0b0d0bdd0bdd0bed0b920d0bad0b0d182d081526020017fb5d0b3d0bed180d0b8d0b800000000000000000000000000000000000000000081525060600191505060405180910390fd5b60016080604051908101604052808581526020018481526020018381526020013373ffffffffffffffffffffffffffffffffffffffff168152509080600181540180825580915050906001820390600052602060002090600402016000909192909190915060008201518160000155602082015181600101556040820151816002015560608201518160030160006101000a81548173ffffffffffffffffffffffffffffffffffffffff021916908373ffffffffffffffffffffffffffffffffffffffff1602179055505050506001808054905003600460003373ffffffffffffffffffffffffffffffffffffffff1673ffffffffffffffffffffffffffffffffffffffff16815260200190815260200160002081905550505050565b6001600560003373ffffffffffffffffffffffffffffffffffffffff1673ffffffffffffffffffffffffffffffffffffffff168152602001908152602001600020541415156122e9576040517f08c379a000000000000000000000000000000000000000000000000000000000815260040180806020018281038252603a8152602001807fd092d18b20d0bdd0b520d18fd0b2d0bbd18fd0b5d182d0b5d181d18c20d181d081526020017fbed182d180d183d0b4d0bdd0b8d0bad0bed0bc20d094d09fd0a100000000000081525060400191505060405180910390fd5b6002600660006008600085815260200190815260200160002060009054906101000a900473ffffffffffffffffffffffffffffffffffffffff1673ffffffffffffffffffffffffffffffffffffffff1673ffffffffffffffffffffffffffffffffffffffff1681526020019081526020016000205481548110151561236a57fe5b906000526020600020906009020160080160049054906101000a900473ffffffffffffffffffffffffffffffffffffffff1673ffffffffffffffffffffffffffffffffffffffff166008600083815260200190815260200160002060009054906101000a900473ffffffffffffffffffffffffffffffffffffffff1673ffffffffffffffffffffffffffffffffffffffff161415156124bd576040517f08c379a00000000000000000000000000000000000000000000000000000000081526004018080602001828103825260518152602001807fd09dd0b5d18220d0b2d0bed0b4d0b8d182d0b5d0bbd18f20d18120d0b4d0b0d081526020017fbdd0bdd18bd0bc20d0bdd0bed0bcd0b5d180d0bed0bc20d183d0b4d0bed181d181526020017f82d0bed0b2d0b5d180d0b5d0bdd0b8d18f00000000000000000000000000000081525060600191505060405180910390fd5b60016002600660006008600086815260200190815260200160002060009054906101000a900473ffffffffffffffffffffffffffffffffffffffff1673ffffffffffffffffffffffffffffffffffffffff1673ffffffffffffffffffffffffffffffffffffffff1681526020019081526020016000205481548110151561254057fe5b906000526020600020906009020160060154016002600660006008600086815260200190815260200160002060009054906101000a900473ffffffffffffffffffffffffffffffffffffffff1673ffffffffffffffffffffffffffffffffffffffff1673ffffffffffffffffffffffffffffffffffffffff168152602001908152602001600020548154811015156125d457fe5b90600052602060002090600902016006018190555060194201600760006002600660006008600088815260200190815260200160002060009054906101000a900473ffffffffffffffffffffffffffffffffffffffff1673ffffffffffffffffffffffffffffffffffffffff1673ffffffffffffffffffffffffffffffffffffffff1681526020019081526020016000205481548110151561267257fe5b906000526020600020906009020160080160049054906101000a900473ffffffffffffffffffffffffffffffffffffffff1673ffffffffffffffffffffffffffffffffffffffff1673ffffffffffffffffffffffffffffffffffffffff1681526020019081526020016000208190555050565b600a60009054906101000a900473ffffffffffffffffffffffffffffffffffffffff1673ffffffffffffffffffffffffffffffffffffffff163373ffffffffffffffffffffffffffffffffffffffff161415156127f6576040517f08c379a00000000000000000000000000000000000000000000000000000000081526004018080602001828103825260428152602001807fd092d18b20d0bdd0b520d18fd0b2d0bbd18fd0b5d182d0b5d181d18c20d181d181526020017f82d180d0b0d185d0bed0b2d0bed0b920d0bad0bed0bcd0bfd0b0d0bdd0b8d0b581526020017fd0b900000000000000000000000000000000000000000000000000000000000081525060600191505060405180910390fd5b600115156002600660006008600086815260200190815260200160002060009054906101000a900473ffffffffffffffffffffffffffffffffffffffff1673ffffffffffffffffffffffffffffffffffffffff1673ffffffffffffffffffffffffffffffffffffffff1681526020019081526020016000205481548110151561287b57fe5b906000526020600020906009020160080160019054906101000a900460ff1615151415156128a857600080fd5b6002600660006008600085815260200190815260200160002060009054906101000a900473ffffffffffffffffffffffffffffffffffffffff1673ffffffffffffffffffffffffffffffffffffffff1673ffffffffffffffffffffffffffffffffffffffff1681526020019081526020016000205481548110151561292957fe5b9060005260206000209060090201600701543414151561294857600080fd5b600a6002600660006008600086815260200190815260200160002060009054906101000a900473ffffffffffffffffffffffffffffffffffffffff1673ffffffffffffffffffffffffffffffffffffffff1673ffffffffffffffffffffffffffffffffffffffff168152602001908152602001600020548154811015156129cb57fe5b906000526020600020906009020160070154023373ffffffffffffffffffffffffffffffffffffffff16311015612a9d57600a6002600660006008600086815260200190815260200160002060009054906101000a900473ffffffffffffffffffffffffffffffffffffffff1673ffffffffffffffffffffffffffffffffffffffff1673ffffffffffffffffffffffffffffffffffffffff16815260200190815260200160002054815481101515612a7f57fe5b90600052602060002090600902016007015402600054016000819055505b50565b6000600960009054906101000a900473ffffffffffffffffffffffffffffffffffffffff1673ffffffffffffffffffffffffffffffffffffffff163373ffffffffffffffffffffffffffffffffffffffff16141515612b8d576040517f08c379a00000000000000000000000000000000000000000000000000000000081526004018080602001828103825260298152602001807fd092d18b20d0bdd0b520d18fd0b2d0bbd18fd0b5d182d0b5d181d18c20d0b1d081526020017fb0d0bdd0bad0bed0bc000000000000000000000000000000000000000000000081525060400191505060405180910390fd5b600a60009054906101000a900473ffffffffffffffffffffffffffffffffffffffff1673ffffffffffffffffffffffffffffffffffffffff163160005403905090565b3373ffffffffffffffffffffffffffffffffffffffff166001600460003373ffffffffffffffffffffffffffffffffffffffff1673ffffffffffffffffffffffffffffffffffffffff16815260200190815260200160002054815481101515612c3557fe5b906000526020600020906004020160030160009054906101000a900473ffffffffffffffffffffffffffffffffffffffff1673ffffffffffffffffffffffffffffffffffffffff16141515612cf2576040517f08c379a000000000000000000000000000000000000000000000000000000000815260040180806020018281038252601d8152602001807fd0a320d0b2d0b0d18120d0bdd0b5d18220d0bcd0b0d188d0b8d0bdd18b00000081525060200191505060405180910390fd5b60006002600660003373ffffffffffffffffffffffffffffffffffffffff1673ffffffffffffffffffffffffffffffffffffffff16815260200190815260200160002054815481101515612d4257fe5b906000526020600020906009020160070154141515612def576040517f08c379a00000000000000000000000000000000000000000000000000000000081526004018080602001828103825260368152602001807fd0a320d0b2d0b0d18120d183d0b6d0b520d0bed184d0bed180d0bcd0bbd0b5d081526020017fbdd0b020d181d182d180d0b0d185d0bed0b2d0bad0b00000000000000000000081525060400191505060405180910390fd5b60016002600660003373ffffffffffffffffffffffffffffffffffffffff1673ffffffffffffffffffffffffffffffffffffffff16815260200190815260200160002054815481101515612e3f57fe5b906000526020600020906009020160080160036101000a81548160ff021916908315150217905550565b828054600181600116156101000203166002900490600052602060002090601f016020900481019282601f10612eaa57805160ff1916838001178555612ed8565b82800160010185558215612ed8579182015b82811115612ed7578251825591602001919060010190612ebc565b5b509050612ee59190612ee9565b5090565b612f0b91905b80821115612f07576000816000905550600101612eef565b5090565b9056fea165627a7a72305820606502d821793d86601223c825db153611923d73612984885ccf7ca4d046706c0029",
  "source": "pragma solidity <=0.7.0;\r\ncontract Driver {\r\n\r\n    struct Vehicle {//\r\n        uint category;\r\n        uint cost;\r\n        uint exploitation;\r\n        address owner;\r\n    }\r\n\r\n    struct Driver {\r\n        string FIO;\r\n        uint licenseid;\r\n        uint expire_date;\r\n        uint category;\r\n        uint exp_start;\r\n        uint accidents;\r\n        uint unpayed_fines;\r\n        uint insurance_deposit;\r\n        bool trafficpolice;\r\n        bool needtobepayed;\r\n        bool bankrequest;\r\n        bool insurancerequest;\r\n        address payable solidityadr;\r\n    }\r\n\r\n    uint bankdebt = 0;\r\n\r\n    Vehicle[] vehicles;\r\n    Driver[] drivers;\r\n\r\n    mapping (address => uint) DriverCategory;\r\n    mapping (address => uint) DriverToVehicle;\r\n    mapping (address => uint) RoleCheck;\r\n    mapping (address => uint) AddressToDriver;\r\n    mapping (address => uint) FineDiscount;\r\n    mapping (uint => address payable) LicenseIdToDriverAddress;\r\n\r\n    address payable bank_address = 0x78731D3Ca6b7E34aC0F824c42a7cC18A495cabaB;\r\n    address payable insurance_address = 0x617F2E2fD72FD9D5503197092aC168c91465E7f2;\r\n\r\n    constructor () public {\r\n        drivers.push(Driver(\"  \", 0, 0, 0, 2018, 0, 0, 0, true,false,false,false,0x5B38Da6a701c568545dCfcB03FcB875f56beddC4));RoleCheck[0x5B38Da6a701c568545dCfcB03FcB875f56beddC4] = 1;AddressToDriver[0x5B38Da6a701c568545dCfcB03FcB875f56beddC4] = drivers.length - 1;\r\n        drivers.push(Driver(\"  \", 0, 0, 0, 2015, 0, 0, 0, false,false,false,false,0xAb8483F64d9C6d1EcF9b849Ae677dD3315835cb2));RoleCheck[0xAb8483F64d9C6d1EcF9b849Ae677dD3315835cb2] = 2;AddressToDriver[0xAb8483F64d9C6d1EcF9b849Ae677dD3315835cb2] = drivers.length - 1;\r\n        drivers.push(Driver(\"  \", 0, 0, 0, 2010, 3, 0, 0, false,false,false,false,0x4B20993Bc481177ec7E8f571ceCaE8A9e22C02db));RoleCheck[0x4B20993Bc481177ec7E8f571ceCaE8A9e22C02db] = 2;AddressToDriver[0x4B20993Bc481177ec7E8f571ceCaE8A9e22C02db] = drivers.length - 1;\r\n    }\r\n\r\n    function driverInfo() public view returns(string memory, uint, uint, uint, uint, uint, uint, uint){\r\n        return(drivers[AddressToDriver[msg.sender]].FIO, drivers[AddressToDriver[msg.sender]].licenseid, drivers[AddressToDriver[msg.sender]].expire_date, drivers[AddressToDriver[msg.sender]].category, drivers[AddressToDriver[msg.sender]].exp_start, drivers[AddressToDriver[msg.sender]].accidents, drivers[AddressToDriver[msg.sender]].unpayed_fines, drivers[AddressToDriver[msg.sender]].insurance_deposit);\r\n    }\r\n\r\n    function driverRegistration(string memory FIO, uint accidents, uint unpayed_fines, uint exp_start) public {\r\n        require(RoleCheck[msg.sender] == 0, \"  \");\r\n        drivers.push(Driver(FIO, 0, 0, 0, exp_start, accidents, unpayed_fines, 0, false, false,false,false, msg.sender));\r\n        RoleCheck[msg.sender] = 2;\r\n        AddressToDriver[msg.sender] = drivers.length - 1;\r\n    }\r\n\r\n\r\n    function licenseRegistration(uint licenseid, uint expire_date, uint category) public {\r\n        require(RoleCheck[msg.sender] != 0,\"  \");\r\n        drivers[AddressToDriver[msg.sender]].licenseid = licenseid;\r\n        drivers[AddressToDriver[msg.sender]].expire_date = expire_date;\r\n        drivers[AddressToDriver[msg.sender]].category = category;\r\n        DriverCategory[msg.sender] = category;\r\n        LicenseIdToDriverAddress[licenseid] = msg.sender;\r\n    }\r\n\r\n    function vehicleRegistration(uint category, uint cost, uint exploitation) public {\r\n        require(DriverCategory[msg.sender] == category, \"     \");\r\n        vehicles.push(Vehicle(category, cost, exploitation, msg.sender));\r\n        DriverToVehicle[msg.sender] = vehicles.length - 1;\r\n    }\r\n\r\n    function insuranceDeposit() public payable {\r\n        require(vehicles[DriverToVehicle[msg.sender]].owner == msg.sender, \"   \");\r\n        require(drivers[AddressToDriver[msg.sender]].insurance_deposit == 0, \"    \");\r\n        drivers[AddressToDriver[msg.sender]].insurancerequest = true;\r\n    }\r\n\r\n    function insuranceAccept() public payable {\r\n        require(drivers[AddressToDriver[msg.sender]].insurancerequest == true);\r\n        if(10 - vehicles[DriverToVehicle[msg.sender]].exploitation < 0){\r\n            drivers[AddressToDriver[msg.sender]].insurance_deposit = vehicles[DriverToVehicle[msg.sender]].cost * ( (10 - vehicles[DriverToVehicle[msg.sender]].exploitation) - (10 - vehicles[DriverToVehicle[msg.sender]].exploitation)*2 )*1 + 20*drivers[AddressToDriver[msg.sender]].unpayed_fines + 100*drivers[AddressToDriver[msg.sender]].accidents- 20*((now - ((drivers[AddressToDriver[msg.sender]].exp_start-1970)*365*86400))/86400/365);//   100\r\n        }\r\n        else {\r\n            drivers[AddressToDriver[msg.sender]].insurance_deposit = vehicles[DriverToVehicle[msg.sender]].cost * (10 - vehicles[DriverToVehicle[msg.sender]].exploitation)*1 + 20*drivers[AddressToDriver[msg.sender]].unpayed_fines + 100*drivers[AddressToDriver[msg.sender]].accidents- 20*((now - ((drivers[AddressToDriver[msg.sender]].exp_start-1970)*365*86400))/86400/365);//   100\r\n        }\r\n    }\r\n//\r\n    function fineIssue(uint licenseid) public {\r\n        require(RoleCheck[msg.sender] == 1, \"    \");\r\n        require(LicenseIdToDriverAddress[licenseid] == drivers[AddressToDriver[LicenseIdToDriverAddress[licenseid]]].solidityadr, \"     \");\r\n        drivers[AddressToDriver[LicenseIdToDriverAddress[licenseid]]].unpayed_fines = drivers[AddressToDriver[LicenseIdToDriverAddress[licenseid]]].unpayed_fines + 1;\r\n        FineDiscount[drivers[AddressToDriver[LicenseIdToDriverAddress[licenseid]]].solidityadr] = block.timestamp + 5 * 5;\r\n    }\r\n\r\n    function finePay(uint licenseid) public payable{\r\n        require(msg.sender == drivers[AddressToDriver[LicenseIdToDriverAddress[licenseid]]].solidityadr, \"     \");\r\n        if (FineDiscount[LicenseIdToDriverAddress[licenseid]] < block.timestamp) {\r\n            require(msg.value == 10,\"   10\");\r\n            bank_address.transfer(10);\r\n        }\r\n        else {\r\n            require(msg.value == 5,\"   5\");\r\n            bank_address.transfer(5);\r\n        }\r\n    }\r\n\r\n    function accidentReg(uint licenseid) public {\r\n        require(RoleCheck[msg.sender] == 1, \"    \");\r\n        require(LicenseIdToDriverAddress[licenseid] == drivers[AddressToDriver[LicenseIdToDriverAddress[licenseid]]].solidityadr, \"     \");\r\n        drivers[AddressToDriver[LicenseIdToDriverAddress[licenseid]]].accidents = drivers[AddressToDriver[LicenseIdToDriverAddress[licenseid]]].accidents + 1;\r\n        if (drivers[AddressToDriver[LicenseIdToDriverAddress[licenseid]]].insurance_deposit != 0) {\r\n            drivers[AddressToDriver[LicenseIdToDriverAddress[licenseid]]].needtobepayed = true;\r\n        }\r\n    }\r\n\r\n    function insurancePay(uint licenseid) public payable{\r\n        require(msg.sender == insurance_address, \"    \");\r\n        require(drivers[AddressToDriver[LicenseIdToDriverAddress[licenseid]]].needtobepayed == true);\r\n        require(msg.value == drivers[AddressToDriver[LicenseIdToDriverAddress[licenseid]]].insurance_deposit);\r\n        if (msg.sender.balance < drivers[AddressToDriver[LicenseIdToDriverAddress[licenseid]]].insurance_deposit*10) {\r\n        bankdebt = bankdebt + drivers[AddressToDriver[LicenseIdToDriverAddress[licenseid]]].insurance_deposit*10;\r\n        }\r\n    }\r\n\r\n    function viewdebt() public view returns(uint) {\r\n        require(msg.sender == bank_address, \"   \");\r\n        return(bankdebt - insurance_address.balance);\r\n    }\r\n\r\n    function insurancecredit() public payable {\r\n        require(msg.sender == bank_address, \"   \");\r\n        require(msg.value == bankdebt - insurance_address.balance, \"  !\");\r\n        insurance_address.transfer(bankdebt - insurance_address.balance);\r\n    }\r\n}\r\n",
  "sourcePath": "C:/Users//Desktop/driver/contracts/Driver.sol",
  "compiler": {
    "name": "solc",
    "version": "0.5.1+commit.c8a2cb62.Emscripten.clang"
  },
  "schemaVersion": "3.2.4",
  "updatedAt": "2020-10-18T13:01:54.119Z",
  "networkType": "ethereum",
  "devdoc": {
    "methods": {}
  },
  "userdoc": {
    "methods": {}
  }
}