{
  "contractName": "Driver",
  "abi": [
    {
      "inputs": [],
      "payable": false,
      "stateMutability": "nonpayable",
      "type": "constructor"
    },
    {
      "constant": true,
      "inputs": [
        {
          "name": "adr",
          "type": "address"
        }
      ],
      "name": "driverInfoTest",
      "outputs": [
        {
          "name": "",
          "type": "string"
        },
        {
          "name": "",
          "type": "uint256"
        },
        {
          "name": "",
          "type": "uint256"
        },
        {
          "name": "",
          "type": "uint256"
        }
      ],
      "payable": false,
      "stateMutability": "view",
      "type": "function"
    },
    {
      "constant": true,
      "inputs": [
        {
          "name": "adr",
          "type": "address"
        }
      ],
      "name": "driverInfoTest1",
      "outputs": [
        {
          "name": "",
          "type": "uint256"
        },
        {
          "name": "",
          "type": "uint256"
        },
        {
          "name": "",
          "type": "uint256"
        },
        {
          "name": "",
          "type": "uint256"
        },
        {
          "name": "",
          "type": "bool"
        }
      ],
      "payable": false,
      "stateMutability": "view",
      "type": "function"
    },
    {
      "constant": true,
      "inputs": [],
      "name": "getFinesID",
      "outputs": [
        {
          "name": "",
          "type": "uint256[]"
        }
      ],
      "payable": false,
      "stateMutability": "view",
      "type": "function"
    },
    {
      "constant": true,
      "inputs": [],
      "name": "getInsurances",
      "outputs": [
        {
          "name": "",
          "type": "uint256[]"
        }
      ],
      "payable": false,
      "stateMutability": "view",
      "type": "function"
    },
    {
      "constant": true,
      "inputs": [
        {
          "name": "fineID",
          "type": "uint256"
        }
      ],
      "name": "getFine",
      "outputs": [
        {
          "name": "",
          "type": "uint256"
        },
        {
          "name": "",
          "type": "bool"
        }
      ],
      "payable": false,
      "stateMutability": "view",
      "type": "function"
    },
    {
      "constant": true,
      "inputs": [
        {
          "name": "InsuranceID",
          "type": "uint256"
        }
      ],
      "name": "getInsurance",
      "outputs": [
        {
          "name": "",
          "type": "uint256"
        },
        {
          "name": "",
          "type": "uint256"
        }
      ],
      "payable": false,
      "stateMutability": "view",
      "type": "function"
    },
    {
      "constant": false,
      "inputs": [
        {
          "name": "FIO",
          "type": "string"
        },
        {
          "name": "accidents",
          "type": "uint256"
        },
        {
          "name": "unpayed_fines",
          "type": "uint256"
        },
        {
          "name": "exp_start",
          "type": "uint256"
        }
      ],
      "name": "driverRegistration",
      "outputs": [],
      "payable": false,
      "stateMutability": "nonpayable",
      "type": "function"
    },
    {
      "constant": false,
      "inputs": [
        {
          "name": "licenseid",
          "type": "uint256"
        },
        {
          "name": "expire_date",
          "type": "uint256"
        },
        {
          "name": "category",
          "type": "uint256"
        }
      ],
      "name": "licenseRegistration",
      "outputs": [],
      "payable": false,
      "stateMutability": "nonpayable",
      "type": "function"
    },
    {
      "constant": false,
      "inputs": [
        {
          "name": "category",
          "type": "uint256"
        },
        {
          "name": "cost",
          "type": "uint256"
        },
        {
          "name": "exploitation",
          "type": "uint256"
        }
      ],
      "name": "vehicleRegistration",
      "outputs": [],
      "payable": false,
      "stateMutability": "nonpayable",
      "type": "function"
    },
    {
      "constant": false,
      "inputs": [],
      "name": "insuranceDeposit",
      "outputs": [],
      "payable": true,
      "stateMutability": "payable",
      "type": "function"
    },
    {
      "constant": false,
      "inputs": [],
      "name": "insuranceAccept",
      "outputs": [],
      "payable": true,
      "stateMutability": "payable",
      "type": "function"
    },
    {
      "constant": false,
      "inputs": [
        {
          "name": "licenseid",
          "type": "uint256"
        }
      ],
      "name": "fineIssue",
      "outputs": [],
      "payable": false,
      "stateMutability": "nonpayable",
      "type": "function"
    },
    {
      "constant": false,
      "inputs": [
        {
          "name": "licenseid",
          "type": "uint256"
        },
        {
          "name": "fineID",
          "type": "uint256"
        }
      ],
      "name": "finePay",
      "outputs": [],
      "payable": true,
      "stateMutability": "payable",
      "type": "function"
    },
    {
      "constant": false,
      "inputs": [
        {
          "name": "licenseid",
          "type": "uint256"
        }
      ],
      "name": "accidentReg",
      "outputs": [],
      "payable": false,
      "stateMutability": "nonpayable",
      "type": "function"
    },
    {
      "constant": false,
      "inputs": [
        {
          "name": "licenseid",
          "type": "uint256"
        }
      ],
      "name": "insurancePay",
      "outputs": [],
      "payable": true,
      "stateMutability": "payable",
      "type": "function"
    },
    {
      "constant": true,
      "inputs": [],
      "name": "viewdebt",
      "outputs": [
        {
          "name": "",
          "type": "uint256"
        }
      ],
      "payable": false,
      "stateMutability": "view",
      "type": "function"
    },
    {
      "constant": false,
      "inputs": [],
      "name": "insurancecredit",
      "outputs": [],
      "payable": true,
      "stateMutability": "payable",
      "type": "function"
    },
    {
      "constant": false,
      "inputs": [],
      "name": "creditReturn",
      "outputs": [],
      "payable": true,
      "stateMutability": "payable",
      "type": "function"
    },
    {
      "constant": true,
      "inputs": [],
      "name": "expire_date_secondsCount",
      "outputs": [
        {
          "name": "",
          "type": "uint256"
        }
      ],
      "payable": false,
      "stateMutability": "view",
      "type": "function"
    },
    {
      "constant": false,
      "inputs": [
        {
          "name": "new_licenseid",
          "type": "uint256"
        },
        {
          "name": "new_expire_date",
          "type": "uint256"
        },
        {
          "name": "new_category",
          "type": "uint256"
        }
      ],
      "name": "licenseRenewal",
      "outputs": [],
      "payable": false,
      "stateMutability": "nonpayable",
      "type": "function"
    }
  ],
  "bytecode": "0x6080604052600080557378731d3ca6b7e34ac0f824c42a7cc18a495cabab600c60006101000a81548173ffffffffffffffffffffffffffffffffffffffff021916908373ffffffffffffffffffffffffffffffffffffffff16021790555073617f2e2fd72fd9d5503197092ac168c91465e7f2600d60006101000a81548173ffffffffffffffffffffffffffffffffffffffff021916908373ffffffffffffffffffffffffffffffffffffffff1602179055506000600e60006101000a81548173ffffffffffffffffffffffffffffffffffffffff021916908373ffffffffffffffffffffffffffffffffffffffff1602179055503480156200010157600080fd5b5060046101a060405190810160405280606060405190810160405280602681526020017fd098d0b2d0b0d0bdd0bed0b220d098d0b2d0b0d0bd20d098d0b2d0b0d0bdd0be81526020017fd0b2d0b8d187000000000000000000000000000000000000000000000000000081525081526020016000815260200160008152602001600081526020016107e28152602001600081526020016000815260200160008152602001600115158152602001600015158152602001600015158152602001600015158152602001735b38da6a701c568545dcfcb03fcb875f56beddc473ffffffffffffffffffffffffffffffffffffffff168152509080600181540180825580915050906001820390600052602060002090600902016000909192909190915060008201518160000190805190602001906200024092919062001062565b506020820151816001015560408201518160020155606082015181600301556080820151816004015560a0820151816005015560c0820151816006015560e082015181600701556101008201518160080160006101000a81548160ff0219169083151502179055506101208201518160080160016101000a81548160ff0219169083151502179055506101408201518160080160026101000a81548160ff0219169083151502179055506101608201518160080160036101000a81548160ff0219169083151502179055506101808201518160080160046101000a81548173ffffffffffffffffffffffffffffffffffffffff021916908373ffffffffffffffffffffffffffffffffffffffff160217905550505050600160076000735b38da6a701c568545dcfcb03fcb875f56beddc473ffffffffffffffffffffffffffffffffffffffff1673ffffffffffffffffffffffffffffffffffffffff1681526020019081526020016000208190555060016004805490500360086000735b38da6a701c568545dcfcb03fcb875f56beddc473ffffffffffffffffffffffffffffffffffffffff1673ffffffffffffffffffffffffffffffffffffffff1681526020019081526020016000208190555060046101a060405190810160405280606060405190810160405280602c81526020017fd0a1d0b5d0bcd0b5d0bdd0bed0b220d0a1d0b5d0bcd0b5d0bd20d0a1d0b5d0bc81526020017fd0b5d0bdd0bed0b2d0b8d187000000000000000000000000000000000000000081525081526020016000815260200160008152602001600081526020016107df815260200160008152602001600081526020016000815260200160001515815260200160001515815260200160001515815260200160001515815260200173ab8483f64d9c6d1ecf9b849ae677dd3315835cb273ffffffffffffffffffffffffffffffffffffffff168152509080600181540180825580915050906001820390600052602060002090600902016000909192909190915060008201518160000190805190602001906200054d92919062001062565b506020820151816001015560408201518160020155606082015181600301556080820151816004015560a0820151816005015560c0820151816006015560e082015181600701556101008201518160080160006101000a81548160ff0219169083151502179055506101208201518160080160016101000a81548160ff0219169083151502179055506101408201518160080160026101000a81548160ff0219169083151502179055506101608201518160080160036101000a81548160ff0219169083151502179055506101808201518160080160046101000a81548173ffffffffffffffffffffffffffffffffffffffff021916908373ffffffffffffffffffffffffffffffffffffffff16021790555050505060026007600073ab8483f64d9c6d1ecf9b849ae677dd3315835cb273ffffffffffffffffffffffffffffffffffffffff1673ffffffffffffffffffffffffffffffffffffffff168152602001908152602001600020819055506001600480549050036008600073ab8483f64d9c6d1ecf9b849ae677dd3315835cb273ffffffffffffffffffffffffffffffffffffffff1673ffffffffffffffffffffffffffffffffffffffff1681526020019081526020016000208190555060046101a060405190810160405280606060405190810160405280602681526020017fd09fd0b5d182d180d0bed0b220d09fd0b5d182d18020d09fd0b5d182d180d0be81526020017fd0b2d0b8d187000000000000000000000000000000000000000000000000000081525081526020016000815260200160008152602001600081526020016107da8152602001600381526020016000815260200160008152602001600015158152602001600015158152602001600015158152602001600015158152602001734b20993bc481177ec7e8f571cecae8a9e22c02db73ffffffffffffffffffffffffffffffffffffffff168152509080600181540180825580915050906001820390600052602060002090600902016000909192909190915060008201518160000190805190602001906200085a92919062001062565b506020820151816001015560408201518160020155606082015181600301556080820151816004015560a0820151816005015560c0820151816006015560e082015181600701556101008201518160080160006101000a81548160ff0219169083151502179055506101208201518160080160016101000a81548160ff0219169083151502179055506101408201518160080160026101000a81548160ff0219169083151502179055506101608201518160080160036101000a81548160ff0219169083151502179055506101808201518160080160046101000a81548173ffffffffffffffffffffffffffffffffffffffff021916908373ffffffffffffffffffffffffffffffffffffffff160217905550505050600260076000734b20993bc481177ec7e8f571cecae8a9e22c02db73ffffffffffffffffffffffffffffffffffffffff1673ffffffffffffffffffffffffffffffffffffffff1681526020019081526020016000208190555060016004805490500360086000734b20993bc481177ec7e8f571cecae8a9e22c02db73ffffffffffffffffffffffffffffffffffffffff1673ffffffffffffffffffffffffffffffffffffffff16815260200190815260200160002081905550600260806040519081016040528060008152602001739bd277449c54b3b1b5125fd919c3e9b6c7ee750973ffffffffffffffffffffffffffffffffffffffff168152602001630153158e815260200160001515815250908060018154018082558091505090600182039060005260206000209060040201600090919290919091506000820151816000015560208201518160010160006101000a81548173ffffffffffffffffffffffffffffffffffffffff021916908373ffffffffffffffffffffffffffffffffffffffff1602179055506040820151816002015560608201518160030160006101000a81548160ff021916908315150217905550505050600260806040519081016040528060018152602001739bd277449c54b3b1b5125fd919c3e9b6c7ee750973ffffffffffffffffffffffffffffffffffffffff168152602001630d3ed78e815260200160001515815250908060018154018082558091505090600182039060005260206000209060040201600090919290919091506000820151816000015560208201518160010160006101000a81548173ffffffffffffffffffffffffffffffffffffffff021916908373ffffffffffffffffffffffffffffffffffffffff1602179055506040820151816002015560608201518160030160006101000a81548160ff021916908315150217905550505050600260806040519081016040528060028152602001739bd277449c54b3b1b5125fd919c3e9b6c7ee750973ffffffffffffffffffffffffffffffffffffffff168152602001630d3efe9e815260200160001515815250908060018154018082558091505090600182039060005260206000209060040201600090919290919091506000820151816000015560208201518160010160006101000a81548173ffffffffffffffffffffffffffffffffffffffff021916908373ffffffffffffffffffffffffffffffffffffffff1602179055506040820151816002015560608201518160030160006101000a81548160ff021916908315150217905550505050600e60009054906101000a900473ffffffffffffffffffffffffffffffffffffffff16600b600080815260200190815260200160002060006101000a81548173ffffffffffffffffffffffffffffffffffffffff021916908373ffffffffffffffffffffffffffffffffffffffff160217905550600e60009054906101000a900473ffffffffffffffffffffffffffffffffffffffff16600b6000606f815260200190815260200160002060006101000a81548173ffffffffffffffffffffffffffffffffffffffff021916908373ffffffffffffffffffffffffffffffffffffffff160217905550600e60009054906101000a900473ffffffffffffffffffffffffffffffffffffffff16600b600060de815260200190815260200160002060006101000a81548173ffffffffffffffffffffffffffffffffffffffff021916908373ffffffffffffffffffffffffffffffffffffffff160217905550600e60009054906101000a900473ffffffffffffffffffffffffffffffffffffffff16600b600061014d815260200190815260200160002060006101000a81548173ffffffffffffffffffffffffffffffffffffffff021916908373ffffffffffffffffffffffffffffffffffffffff160217905550600e60009054906101000a900473ffffffffffffffffffffffffffffffffffffffff16600b60006101bc815260200190815260200160002060006101000a81548173ffffffffffffffffffffffffffffffffffffffff021916908373ffffffffffffffffffffffffffffffffffffffff160217905550600e60009054906101000a900473ffffffffffffffffffffffffffffffffffffffff16600b600061022b815260200190815260200160002060006101000a81548173ffffffffffffffffffffffffffffffffffffffff021916908373ffffffffffffffffffffffffffffffffffffffff160217905550600e60009054906101000a900473ffffffffffffffffffffffffffffffffffffffff16600b600061029a815260200190815260200160002060006101000a81548173ffffffffffffffffffffffffffffffffffffffff021916908373ffffffffffffffffffffffffffffffffffffffff16021790555062001111565b828054600181600116156101000203166002900490600052602060002090601f016020900481019282601f10620010a557805160ff1916838001178555620010d6565b82800160010185558215620010d6579182015b82811115620010d5578251825591602001919060010190620010b8565b5b509050620010e59190620010e9565b5090565b6200110e91905b808211156200110a576000816000905550600101620010f0565b5090565b90565b61445680620011216000396000f3fe60806040526004361061010c576000357c010000000000000000000000000000000000000000000000000000000090048063029b0d8b146101115780630399fffe1461016b5780630e709ca7146101d7578063106baf8a146102435780631cdade791461032257806331bd942d1461032c57806343bd54ec146103365780634ca688fe146103855780634dc588b71461040a5780634ffd9f3814610414578063514294761461044c5780636938079d1461048757806385fae6021461056d5780638b1e24ca146105c3578063abc0759914610612578063b35ef93214610661578063ba8e21ce1461069c578063bc10048d146106ca578063c83eff5d146106f5578063e5ce6f2e14610720575b600080fd5b34801561011d57600080fd5b5061014a6004803603602081101561013457600080fd5b810190808035906020019092919050505061072a565b60405180838152602001821515151581526020019250505060405180910390f35b34801561017757600080fd5b50610180610785565b6040518080602001828103825283818151815260200191508051906020019060200280838360005b838110156101c35780820151818401526020810190506101a8565b505050509050019250505060405180910390f35b3480156101e357600080fd5b506101ec61081a565b6040518080602001828103825283818151815260200191508051906020019060200280838360005b8381101561022f578082015181840152602081019050610214565b505050509050019250505060405180910390f35b34801561024f57600080fd5b506102926004803603602081101561026657600080fd5b81019080803573ffffffffffffffffffffffffffffffffffffffff1690602001909291905050506108af565b6040518080602001858152602001848152602001838152602001828103825286818151815260200191508051906020019080838360005b838110156102e45780820151818401526020810190506102c9565b50505050905090810190601f1680156103115780820380516001836020036101000a031916815260200191505b509550505050505060405180910390f35b61032a610bbd565b005b610334611210565b005b34801561034257600080fd5b506103836004803603606081101561035957600080fd5b810190808035906020019092919080359060200190929190803590602001909291905050506114fb565b005b34801561039157600080fd5b506103d4600480360360208110156103a857600080fd5b81019080803573ffffffffffffffffffffffffffffffffffffffff169060200190929190505050611a0e565b60405180868152602001858152602001848152602001838152602001821515151581526020019550505050505060405180910390f35b610412611cf3565b005b61044a6004803603604081101561042a57600080fd5b810190808035906020019092919080359060200190929190505050612011565b005b34801561045857600080fd5b506104856004803603602081101561046f57600080fd5b8101908080359060200190929190505050612590565b005b34801561049357600080fd5b5061056b600480360360808110156104aa57600080fd5b81019080803590602001906401000000008111156104c757600080fd5b8201836020820111156104d957600080fd5b803590602001918460018302840111640100000000831117156104fb57600080fd5b91908080601f016020809104026020016040519081016040528093929190818152602001838380828437600081840152601f19601f820116905080830192505050505050509192919290803590602001909291908035906020019092919080359060200190929190505050612a2e565b005b34801561057957600080fd5b506105a66004803603602081101561059057600080fd5b8101908080359060200190929190505050612d80565b604051808381526020018281526020019250505060405180910390f35b3480156105cf57600080fd5b50610610600480360360608110156105e657600080fd5b81019080803590602001909291908035906020019092919080359060200190929190505050612dce565b005b34801561061e57600080fd5b5061065f6004803603606081101561063557600080fd5b81019080803590602001909291908035906020019092919080359060200190929190505050613191565b005b34801561066d57600080fd5b5061069a6004803603602081101561068457600080fd5b81019080803590602001909291905050506133b1565b005b6106c8600480360360208110156106b257600080fd5b81019080803590602001909291905050506138f9565b005b3480156106d657600080fd5b506106df613edf565b6040518082815260200191505060405180910390f35b34801561070157600080fd5b5061070a613fbc565b6040518082815260200191505060405180910390f35b6107286140ec565b005b60008060028381548110151561073c57fe5b90600052602060002090600402016000015460028481548110151561075d57fe5b906000526020600020906004020160030160009054906101000a900460ff1691509150915091565b6060600960003373ffffffffffffffffffffffffffffffffffffffff1673ffffffffffffffffffffffffffffffffffffffff16815260200190815260200160002080548060200260200160405190810160405280929190818152602001828054801561081057602002820191906000526020600020905b8154815260200190600101908083116107fc575b5050505050905090565b6060600a60003373ffffffffffffffffffffffffffffffffffffffff1673ffffffffffffffffffffffffffffffffffffffff1681526020019081526020016000208054806020026020016040519081016040528092919081815260200182805480156108a557602002820191906000526020600020905b815481526020019060010190808311610891575b5050505050905090565b6060600080600080600760008773ffffffffffffffffffffffffffffffffffffffff1673ffffffffffffffffffffffffffffffffffffffff1681526020019081526020016000205414151515610993576040517f08c379a000000000000000000000000000000000000000000000000000000000815260040180806020018281038252602a8152602001807fd092d18b20d0bdd0b520d0b7d0b0d180d0b5d0b3d0b8d181d182d180d0b8d18081526020017fd0bed0b2d0b0d0bdd18b0000000000000000000000000000000000000000000081525060400191505060405180910390fd5b6004600860008773ffffffffffffffffffffffffffffffffffffffff1673ffffffffffffffffffffffffffffffffffffffff168152602001908152602001600020548154811015156109e157fe5b90600052602060002090600902016000016004600860008873ffffffffffffffffffffffffffffffffffffffff1673ffffffffffffffffffffffffffffffffffffffff16815260200190815260200160002054815481101515610a4057fe5b9060005260206000209060090201600101546004600860008973ffffffffffffffffffffffffffffffffffffffff1673ffffffffffffffffffffffffffffffffffffffff16815260200190815260200160002054815481101515610aa057fe5b9060005260206000209060090201600201546004600860008a73ffffffffffffffffffffffffffffffffffffffff1673ffffffffffffffffffffffffffffffffffffffff16815260200190815260200160002054815481101515610b0057fe5b906000526020600020906009020160030154838054600181600116156101000203166002900480601f016020809104026020016040519081016040528092919081815260200182805460018160011615610100020316600290048015610ba75780601f10610b7c57610100808354040283529160200191610ba7565b820191906000526020600020905b815481529060010190602001808311610b8a57829003601f168201915b5050505050935093509350935093509193509193565b600115156004600860003373ffffffffffffffffffffffffffffffffffffffff1673ffffffffffffffffffffffffffffffffffffffff16815260200190815260200160002054815481101515610c0f57fe5b906000526020600020906009020160080160039054906101000a900460ff161515141515610c3c57600080fd5b60006003600660003373ffffffffffffffffffffffffffffffffffffffff1673ffffffffffffffffffffffffffffffffffffffff16815260200190815260200160002054815481101515610c8c57fe5b906000526020600020906004020160020154600a031015610f905761016d620151808061016d6107b26004600860003373ffffffffffffffffffffffffffffffffffffffff1673ffffffffffffffffffffffffffffffffffffffff16815260200190815260200160002054815481101515610d0357fe5b9060005260206000209060090201600401540302024203811515610d2357fe5b04811515610d2d57fe5b046014026004600860003373ffffffffffffffffffffffffffffffffffffffff1673ffffffffffffffffffffffffffffffffffffffff16815260200190815260200160002054815481101515610d7f57fe5b9060005260206000209060090201600501546064026004600860003373ffffffffffffffffffffffffffffffffffffffff1673ffffffffffffffffffffffffffffffffffffffff16815260200190815260200160002054815481101515610de257fe5b906000526020600020906009020160060154601402600160026003600660003373ffffffffffffffffffffffffffffffffffffffff1673ffffffffffffffffffffffffffffffffffffffff16815260200190815260200160002054815481101515610e4957fe5b906000526020600020906004020160020154600a03026003600660003373ffffffffffffffffffffffffffffffffffffffff1673ffffffffffffffffffffffffffffffffffffffff16815260200190815260200160002054815481101515610ead57fe5b906000526020600020906004020160020154600a03036003600660003373ffffffffffffffffffffffffffffffffffffffff1673ffffffffffffffffffffffffffffffffffffffff16815260200190815260200160002054815481101515610f1157fe5b90600052602060002090600402016001015402020101036004600860003373ffffffffffffffffffffffffffffffffffffffff1673ffffffffffffffffffffffffffffffffffffffff16815260200190815260200160002054815481101515610f7657fe5b90600052602060002090600902016007018190555061120e565b61016d620151808061016d6107b26004600860003373ffffffffffffffffffffffffffffffffffffffff1673ffffffffffffffffffffffffffffffffffffffff16815260200190815260200160002054815481101515610fec57fe5b906000526020600020906009020160040154030202420381151561100c57fe5b0481151561101657fe5b046014026004600860003373ffffffffffffffffffffffffffffffffffffffff1673ffffffffffffffffffffffffffffffffffffffff1681526020019081526020016000205481548110151561106857fe5b9060005260206000209060090201600501546064026004600860003373ffffffffffffffffffffffffffffffffffffffff1673ffffffffffffffffffffffffffffffffffffffff168152602001908152602001600020548154811015156110cb57fe5b90600052602060002090600902016006015460140260016003600660003373ffffffffffffffffffffffffffffffffffffffff1673ffffffffffffffffffffffffffffffffffffffff1681526020019081526020016000205481548110151561113057fe5b906000526020600020906004020160020154600a036003600660003373ffffffffffffffffffffffffffffffffffffffff1673ffffffffffffffffffffffffffffffffffffffff1681526020019081526020016000205481548110151561119357fe5b90600052602060002090600402016001015402020101036004600860003373ffffffffffffffffffffffffffffffffffffffff1673ffffffffffffffffffffffffffffffffffffffff168152602001908152602001600020548154811015156111f857fe5b9060005260206000209060090201600701819055505b565b600c60009054906101000a900473ffffffffffffffffffffffffffffffffffffffff1673ffffffffffffffffffffffffffffffffffffffff163373ffffffffffffffffffffffffffffffffffffffff1614806112b95750600d60009054906101000a900473ffffffffffffffffffffffffffffffffffffffff1673ffffffffffffffffffffffffffffffffffffffff163373ffffffffffffffffffffffffffffffffffffffff16145b1515611379576040517f08c379a00000000000000000000000000000000000000000000000000000000081526004018080602001828103825260568152602001807fd092d18b20d0bdd0b520d18fd0b2d0bbd18fd0b5d182d0b5d181d18c20d0b1d081526020017fb0d0bdd0bad0bed0bc20d0b8d0bbd0b820d181d182d180d0b0d185d0bed0b2d081526020017fbed0b920d0bad0bed0bcd0bfd0b0d0bdd0b8d0b5d0b90000000000000000000081525060600191505060405180910390fd5b600d60009054906101000a900473ffffffffffffffffffffffffffffffffffffffff1673ffffffffffffffffffffffffffffffffffffffff16316000540334141515611453576040517f08c379a00000000000000000000000000000000000000000000000000000000081526004018080602001828103825260258152602001807fd09dd183d0b6d0bdd0be20d0b1d0bed0bbd18cd188d0b520d0b7d0bed0bbd0be81526020017fd182d0b02100000000000000000000000000000000000000000000000000000081525060400191505060405180910390fd5b600d60009054906101000a900473ffffffffffffffffffffffffffffffffffffffff1673ffffffffffffffffffffffffffffffffffffffff166108fc600d60009054906101000a900473ffffffffffffffffffffffffffffffffffffffff1673ffffffffffffffffffffffffffffffffffffffff1631600054039081150290604051600060405180830381858888f193505050501580156114f8573d6000803e3d6000fd5b50565b62278d00611507613edf565b111515156115ef576040517f08c379a00000000000000000000000000000000000000000000000000000000081526004018080602001828103825260628152602001807fd094d0be20d0bad0bed0bdd186d0b020d181d180d0bed0bad0b020d0bed0bad081526020017fbed0bdd187d0b0d0bdd0b8d18f20d183d0b4d0bed181d182d0bed0b2d0b5d18081526020017fd0b5d0bdd0b8d18f20d0b1d0bed0bbd18cd188d0b520d0bcd0b5d181d18fd18681526020017fd0b000000000000000000000000000000000000000000000000000000000000081525060800191505060405180910390fd5b60006004600860003373ffffffffffffffffffffffffffffffffffffffff1673ffffffffffffffffffffffffffffffffffffffff1681526020019081526020016000205481548110151561163f57fe5b9060005260206000209060090201600201541415156116ec576040517f08c379a00000000000000000000000000000000000000000000000000000000081526004018080602001828103825260388152602001807fd0a320d0b2d0b0d18120d0b5d181d182d18c20d0bdd0b5d0bed0bfd0bbd0b0d181526020017f87d0b5d0bdd0bdd18bd0b520d188d182d180d0b0d184d18b000000000000000081525060400191505060405180910390fd5b600e60009054906101000a900473ffffffffffffffffffffffffffffffffffffffff1673ffffffffffffffffffffffffffffffffffffffff16600b600085815260200190815260200160002060009054906101000a900473ffffffffffffffffffffffffffffffffffffffff1673ffffffffffffffffffffffffffffffffffffffff1614151561180a576040517f08c379a00000000000000000000000000000000000000000000000000000000081526004018080602001828103825260258152602001807fd0add182d0bed18220d0bdd0bed0bcd0b5d18020d183d0b6d0b520d0b7d0b0d081526020017fbdd18fd18200000000000000000000000000000000000000000000000000000081525060400191505060405180910390fd5b600e60009054906101000a900473ffffffffffffffffffffffffffffffffffffffff16600b60006004600860003373ffffffffffffffffffffffffffffffffffffffff1673ffffffffffffffffffffffffffffffffffffffff1681526020019081526020016000205481548110151561187f57fe5b906000526020600020906009020160010154815260200190815260200160002060006101000a81548173ffffffffffffffffffffffffffffffffffffffff021916908373ffffffffffffffffffffffffffffffffffffffff160217905550826004600860003373ffffffffffffffffffffffffffffffffffffffff1673ffffffffffffffffffffffffffffffffffffffff1681526020019081526020016000205481548110151561192c57fe5b906000526020600020906009020160010181905550816004600860003373ffffffffffffffffffffffffffffffffffffffff1673ffffffffffffffffffffffffffffffffffffffff1681526020019081526020016000205481548110151561199057fe5b906000526020600020906009020160020181905550806004600860003373ffffffffffffffffffffffffffffffffffffffff1673ffffffffffffffffffffffffffffffffffffffff168152602001908152602001600020548154811015156119f457fe5b906000526020600020906009020160030181905550505050565b600080600080600080600760008873ffffffffffffffffffffffffffffffffffffffff1673ffffffffffffffffffffffffffffffffffffffff1681526020019081526020016000205414151515611af3576040517f08c379a000000000000000000000000000000000000000000000000000000000815260040180806020018281038252602a8152602001807fd092d18b20d0bdd0b520d0b7d0b0d180d0b5d0b3d0b8d181d182d180d0b8d18081526020017fd0bed0b2d0b0d0bdd18b0000000000000000000000000000000000000000000081525060400191505060405180910390fd5b6004600860008873ffffffffffffffffffffffffffffffffffffffff1673ffffffffffffffffffffffffffffffffffffffff16815260200190815260200160002054815481101515611b4157fe5b9060005260206000209060090201600401546004600860008973ffffffffffffffffffffffffffffffffffffffff1673ffffffffffffffffffffffffffffffffffffffff16815260200190815260200160002054815481101515611ba157fe5b9060005260206000209060090201600501546004600860008a73ffffffffffffffffffffffffffffffffffffffff1673ffffffffffffffffffffffffffffffffffffffff16815260200190815260200160002054815481101515611c0157fe5b9060005260206000209060090201600601546004600860008b73ffffffffffffffffffffffffffffffffffffffff1673ffffffffffffffffffffffffffffffffffffffff16815260200190815260200160002054815481101515611c6157fe5b9060005260206000209060090201600701546004600860008c73ffffffffffffffffffffffffffffffffffffffff1673ffffffffffffffffffffffffffffffffffffffff16815260200190815260200160002054815481101515611cc157fe5b906000526020600020906009020160080160009054906101000a900460ff169450945094509450945091939590929450565b600d60009054906101000a900473ffffffffffffffffffffffffffffffffffffffff1673ffffffffffffffffffffffffffffffffffffffff163373ffffffffffffffffffffffffffffffffffffffff16141515611e04576040517f08c379a00000000000000000000000000000000000000000000000000000000081526004018080602001828103825260428152602001807fd092d18b20d0bdd0b520d18fd0b2d0bbd18fd0b5d182d0b5d181d18c20d181d181526020017f82d180d0b0d185d0bed0b2d0bed0b920d0bad0bed0bcd0bfd0b0d0bdd0b8d0b581526020017fd0b900000000000000000000000000000000000000000000000000000000000081525060600191505060405180910390fd5b600054600d60009054906101000a900473ffffffffffffffffffffffffffffffffffffffff1673ffffffffffffffffffffffffffffffffffffffff1631111515611f4957600d60009054906101000a900473ffffffffffffffffffffffffffffffffffffffff1673ffffffffffffffffffffffffffffffffffffffff163134141515611f44576040517f08c379a000000000000000000000000000000000000000000000000000000000815260040180806020018281038252605a8152602001807fd092d18b20d0b4d0bed0bbd0b6d0bdd18b20d0bfd0b5d180d0b5d0b2d0b5d18181526020017fd182d0b820d0b2d181d0b520d0b4d0b5d0bdd18cd0b3d0b820d0b220d181d18781526020017fd191d18220d0b4d0bed0bbd0b3d0b020d0b1d0b0d0bdd0bad18300000000000081525060600191505060405180910390fd5b61200f565b6000543414151561200e576040517f08c379a00000000000000000000000000000000000000000000000000000000081526004018080602001828103825260418152602001807fd092d18b20d0b4d0bed0bbd0b6d0bdd18b20d0bfd0b5d180d0b5d0b2d0b5d18181526020017fd182d0b820d0b2d181d18e20d181d183d0bcd0bcd18320d0b4d0bed0bbd0b3d081526020017fb00000000000000000000000000000000000000000000000000000000000000081525060600191505060405180910390fd5b5b565b6000151560028281548110151561202457fe5b906000526020600020906004020160030160009054906101000a900460ff1615151415156120ba576040517f08c379a00000000000000000000000000000000000000000000000000000000081526004018080602001828103825260118152602001807f3f3f3f3f3f203f3f3f203f3f3f3f3f3f3f00000000000000000000000000000081525060200191505060405180910390fd5b600460086000600b600086815260200190815260200160002060009054906101000a900473ffffffffffffffffffffffffffffffffffffffff1673ffffffffffffffffffffffffffffffffffffffff1673ffffffffffffffffffffffffffffffffffffffff1681526020019081526020016000205481548110151561213b57fe5b906000526020600020906009020160080160049054906101000a900473ffffffffffffffffffffffffffffffffffffffff1673ffffffffffffffffffffffffffffffffffffffff163373ffffffffffffffffffffffffffffffffffffffff16141515612235576040517f08c379a00000000000000000000000000000000000000000000000000000000081526004018080602001828103825260308152602001807f3f3f203f3f3f3f3f203f3f3f3f3f203f3f3f3f3f203f3f3f3f3f3f3f3f3f3f3f81526020017f3f3f203f3f3f3f3f3f3f3f3f3f3f3f3f0000000000000000000000000000000081525060400191505060405180910390fd5b601960028281548110151561224657fe5b90600052602060002090600402016002015442031115156123a7576005341415156122ff576040517f08c379a00000000000000000000000000000000000000000000000000000000081526004018080602001828103825260278152602001807fd09ed0bfd0bbd0b0d182d0b020d188d182d180d0b0d184d0b020d181d182d0be81526020017fd0b8d1822031300000000000000000000000000000000000000000000000000081525060400191505060405180910390fd5b600c60009054906101000a900473ffffffffffffffffffffffffffffffffffffffff1673ffffffffffffffffffffffffffffffffffffffff166108fc60059081150290604051600060405180830381858888f19350505050158015612368573d6000803e3d6000fd5b50600160028281548110151561237a57fe5b906000526020600020906004020160030160006101000a81548160ff0219169083151502179055506124e9565b600a34141515612445576040517f08c379a00000000000000000000000000000000000000000000000000000000081526004018080602001828103825260268152602001807fd09ed0bfd0bbd0b0d182d0b020d188d182d180d0b0d184d0b020d181d182d0be81526020017fd0b8d1822035000000000000000000000000000000000000000000000000000081525060400191505060405180910390fd5b600c60009054906101000a900473ffffffffffffffffffffffffffffffffffffffff1673ffffffffffffffffffffffffffffffffffffffff166108fc600a9081150290604051600060405180830381858888f193505050501580156124ae573d6000803e3d6000fd5b5060016002828154811015156124c057fe5b906000526020600020906004020160030160006101000a81548160ff0219169083151502179055505b600460086000600b600086815260200190815260200160002060009054906101000a900473ffffffffffffffffffffffffffffffffffffffff1673ffffffffffffffffffffffffffffffffffffffff1673ffffffffffffffffffffffffffffffffffffffff1681526020019081526020016000205481548110151561256a57fe5b906000526020600020906009020160060160008154809291906001900391905055505050565b6001600760003373ffffffffffffffffffffffffffffffffffffffff1673ffffffffffffffffffffffffffffffffffffffff1681526020019081526020016000205414151561266d576040517f08c379a000000000000000000000000000000000000000000000000000000000815260040180806020018281038252603a8152602001807fd092d18b20d0bdd0b520d18fd0b2d0bbd18fd0b5d182d0b5d181d18c20d181d081526020017fbed182d180d183d0b4d0bdd0b8d0bad0bed0bc20d094d09fd0a100000000000081525060400191505060405180910390fd5b600460086000600b600085815260200190815260200160002060009054906101000a900473ffffffffffffffffffffffffffffffffffffffff1673ffffffffffffffffffffffffffffffffffffffff1673ffffffffffffffffffffffffffffffffffffffff168152602001908152602001600020548154811015156126ee57fe5b906000526020600020906009020160080160049054906101000a900473ffffffffffffffffffffffffffffffffffffffff1673ffffffffffffffffffffffffffffffffffffffff16600b600083815260200190815260200160002060009054906101000a900473ffffffffffffffffffffffffffffffffffffffff1673ffffffffffffffffffffffffffffffffffffffff16141515612841576040517f08c379a00000000000000000000000000000000000000000000000000000000081526004018080602001828103825260518152602001807fd09dd0b5d18220d0b2d0bed0b4d0b8d182d0b5d0bbd18f20d18120d0b4d0b0d081526020017fbdd0bdd18bd0bc20d0bdd0bed0bcd0b5d180d0bed0bc20d183d0b4d0bed181d181526020017f82d0bed0b2d0b5d180d0b5d0bdd0b8d18f00000000000000000000000000000081525060600191505060405180910390fd5b600460086000600b600085815260200190815260200160002060009054906101000a900473ffffffffffffffffffffffffffffffffffffffff1673ffffffffffffffffffffffffffffffffffffffff1673ffffffffffffffffffffffffffffffffffffffff168152602001908152602001600020548154811015156128c257fe5b9060005260206000209060090201600501600081548092919060010191905055506000600460086000600b600086815260200190815260200160002060009054906101000a900473ffffffffffffffffffffffffffffffffffffffff1673ffffffffffffffffffffffffffffffffffffffff1673ffffffffffffffffffffffffffffffffffffffff1681526020019081526020016000205481548110151561296657fe5b906000526020600020906009020160070154141515612a2b576001600460086000600b600086815260200190815260200160002060009054906101000a900473ffffffffffffffffffffffffffffffffffffffff1673ffffffffffffffffffffffffffffffffffffffff1673ffffffffffffffffffffffffffffffffffffffff16815260200190815260200160002054815481101515612a0257fe5b906000526020600020906009020160080160016101000a81548160ff0219169083151502179055505b50565b6000600760003373ffffffffffffffffffffffffffffffffffffffff1673ffffffffffffffffffffffffffffffffffffffff16815260200190815260200160002054141515612b0b576040517f08c379a000000000000000000000000000000000000000000000000000000000815260040180806020018281038252602c8152602001807fd092d18b20d183d0b6d0b520d0b7d0b0d180d0b5d0b3d0b8d181d182d180d0b881526020017fd180d0bed0b2d0b0d0bdd18b000000000000000000000000000000000000000081525060400191505060405180910390fd5b60046101a060405190810160405280868152602001600081526020016000815260200160008152602001838152602001858152602001848152602001600081526020016000151581526020016000151581526020016000151581526020016000151581526020013373ffffffffffffffffffffffffffffffffffffffff16815250908060018154018082558091505090600182039060005260206000209060090201600090919290919091506000820151816000019080519060200190612bd3929190614385565b506020820151816001015560408201518160020155606082015181600301556080820151816004015560a0820151816005015560c0820151816006015560e082015181600701556101008201518160080160006101000a81548160ff0219169083151502179055506101208201518160080160016101000a81548160ff0219169083151502179055506101408201518160080160026101000a81548160ff0219169083151502179055506101608201518160080160036101000a81548160ff0219169083151502179055506101808201518160080160046101000a81548173ffffffffffffffffffffffffffffffffffffffff021916908373ffffffffffffffffffffffffffffffffffffffff1602179055505050506002600760003373ffffffffffffffffffffffffffffffffffffffff1673ffffffffffffffffffffffffffffffffffffffff16815260200190815260200160002081905550600160048054905003600860003373ffffffffffffffffffffffffffffffffffffffff1673ffffffffffffffffffffffffffffffffffffffff1681526020019081526020016000208190555050505050565b600080600183815481101515612d9257fe5b906000526020600020906003020160000154600184815481101515612db357fe5b90600052602060002090600302016002015491509150915091565b6000600760003373ffffffffffffffffffffffffffffffffffffffff1673ffffffffffffffffffffffffffffffffffffffff1681526020019081526020016000205414151515612eac576040517f08c379a000000000000000000000000000000000000000000000000000000000815260040180806020018281038252602a8152602001807fd092d18b20d0bdd0b520d0b7d0b0d180d0b5d0b3d0b8d181d182d180d0b8d18081526020017fd0bed0b2d0b0d0bdd18b0000000000000000000000000000000000000000000081525060400191505060405180910390fd5b600e60009054906101000a900473ffffffffffffffffffffffffffffffffffffffff1673ffffffffffffffffffffffffffffffffffffffff16600b600085815260200190815260200160002060009054906101000a900473ffffffffffffffffffffffffffffffffffffffff1673ffffffffffffffffffffffffffffffffffffffff16141515612fca576040517f08c379a00000000000000000000000000000000000000000000000000000000081526004018080602001828103825260258152602001807fd0add182d0bed18220d0bdd0bed0bcd0b5d18020d183d0b6d0b520d0b7d0b0d081526020017fbdd18fd18200000000000000000000000000000000000000000000000000000081525060400191505060405180910390fd5b826004600860003373ffffffffffffffffffffffffffffffffffffffff1673ffffffffffffffffffffffffffffffffffffffff1681526020019081526020016000205481548110151561301957fe5b906000526020600020906009020160010181905550816004600860003373ffffffffffffffffffffffffffffffffffffffff1673ffffffffffffffffffffffffffffffffffffffff1681526020019081526020016000205481548110151561307d57fe5b906000526020600020906009020160020181905550806004600860003373ffffffffffffffffffffffffffffffffffffffff1673ffffffffffffffffffffffffffffffffffffffff168152602001908152602001600020548154811015156130e157fe5b90600052602060002090600902016003018190555080600560003373ffffffffffffffffffffffffffffffffffffffff1673ffffffffffffffffffffffffffffffffffffffff1681526020019081526020016000208190555033600b600085815260200190815260200160002060006101000a81548173ffffffffffffffffffffffffffffffffffffffff021916908373ffffffffffffffffffffffffffffffffffffffff160217905550505050565b82600560003373ffffffffffffffffffffffffffffffffffffffff1673ffffffffffffffffffffffffffffffffffffffff16815260200190815260200160002054141515613293576040517f08c379a000000000000000000000000000000000000000000000000000000000815260040180806020018281038252604b8152602001807fd092d18b20d0bdd0b520d0bed0b1d0bbd0b0d0b4d0b0d0b5d182d0b520d0bfd181526020017f80d0b0d0b2d0b0d0bcd0b820d0b4d0b0d0bdd0bdd0bed0b920d0bad0b0d182d081526020017fb5d0b3d0bed180d0b8d0b800000000000000000000000000000000000000000081525060600191505060405180910390fd5b60036080604051908101604052808581526020018481526020018381526020013373ffffffffffffffffffffffffffffffffffffffff168152509080600181540180825580915050906001820390600052602060002090600402016000909192909190915060008201518160000155602082015181600101556040820151816002015560608201518160030160006101000a81548173ffffffffffffffffffffffffffffffffffffffff021916908373ffffffffffffffffffffffffffffffffffffffff160217905550505050600160038054905003600660003373ffffffffffffffffffffffffffffffffffffffff1673ffffffffffffffffffffffffffffffffffffffff16815260200190815260200160002081905550505050565b6001600760003373ffffffffffffffffffffffffffffffffffffffff1673ffffffffffffffffffffffffffffffffffffffff16815260200190815260200160002054141515613468576040517f08c379a000000000000000000000000000000000000000000000000000000000815260040180806020018281038252601f8152602001807f3f3f203f3f203f3f3f3f3f3f3f3f3f203f3f3f3f3f3f3f3f3f3f3f203f3f3f0081525060200191505060405180910390fd5b600460086000600b600085815260200190815260200160002060009054906101000a900473ffffffffffffffffffffffffffffffffffffffff1673ffffffffffffffffffffffffffffffffffffffff1673ffffffffffffffffffffffffffffffffffffffff168152602001908152602001600020548154811015156134e957fe5b906000526020600020906009020160080160049054906101000a900473ffffffffffffffffffffffffffffffffffffffff1673ffffffffffffffffffffffffffffffffffffffff16600b600083815260200190815260200160002060009054906101000a900473ffffffffffffffffffffffffffffffffffffffff1673ffffffffffffffffffffffffffffffffffffffff16141515613616576040517f08c379a000000000000000000000000000000000000000000000000000000000815260040180806020018281038252602b8152602001807f3f3f3f203f3f3f3f3f3f3f3f203f203f3f3f3f3f3f203f3f3f3f3f3f3f203f3f81526020017f3f3f3f3f3f3f3f3f3f3f3f00000000000000000000000000000000000000000081525060400191505060405180910390fd5b600460086000600b600085815260200190815260200160002060009054906101000a900473ffffffffffffffffffffffffffffffffffffffff1673ffffffffffffffffffffffffffffffffffffffff1673ffffffffffffffffffffffffffffffffffffffff1681526020019081526020016000205481548110151561369757fe5b90600052602060002090600902016006016000815480929190600101919050555060096000600b600084815260200190815260200160002060009054906101000a900473ffffffffffffffffffffffffffffffffffffffff1673ffffffffffffffffffffffffffffffffffffffff1673ffffffffffffffffffffffffffffffffffffffff168152602001908152602001600020600280549050908060018154018082558091505090600182039060005260206000200160009091929091909150555060026080604051908101604052806002805490508152602001600460086000600b600088815260200190815260200160002060009054906101000a900473ffffffffffffffffffffffffffffffffffffffff1673ffffffffffffffffffffffffffffffffffffffff1673ffffffffffffffffffffffffffffffffffffffff168152602001908152602001600020548154811015156137f357fe5b906000526020600020906009020160080160049054906101000a900473ffffffffffffffffffffffffffffffffffffffff1673ffffffffffffffffffffffffffffffffffffffff16815260200142815260200160001515815250908060018154018082558091505090600182039060005260206000209060040201600090919290919091506000820151816000015560208201518160010160006101000a81548173ffffffffffffffffffffffffffffffffffffffff021916908373ffffffffffffffffffffffffffffffffffffffff1602179055506040820151816002015560608201518160030160006101000a81548160ff02191690831515021790555050505050565b600d60009054906101000a900473ffffffffffffffffffffffffffffffffffffffff1673ffffffffffffffffffffffffffffffffffffffff163373ffffffffffffffffffffffffffffffffffffffff16141515613a0a576040517f08c379a00000000000000000000000000000000000000000000000000000000081526004018080602001828103825260428152602001807fd092d18b20d0bdd0b520d18fd0b2d0bbd18fd0b5d182d0b5d181d18c20d181d181526020017f82d180d0b0d185d0bed0b2d0bed0b920d0bad0bed0bcd0bfd0b0d0bdd0b8d0b581526020017fd0b900000000000000000000000000000000000000000000000000000000000081525060600191505060405180910390fd5b60011515600460086000600b600086815260200190815260200160002060009054906101000a900473ffffffffffffffffffffffffffffffffffffffff1673ffffffffffffffffffffffffffffffffffffffff1673ffffffffffffffffffffffffffffffffffffffff16815260200190815260200160002054815481101515613a8f57fe5b906000526020600020906009020160080160019054906101000a900460ff161515141515613abc57600080fd5b600460086000600b600085815260200190815260200160002060009054906101000a900473ffffffffffffffffffffffffffffffffffffffff1673ffffffffffffffffffffffffffffffffffffffff1673ffffffffffffffffffffffffffffffffffffffff16815260200190815260200160002054815481101515613b3d57fe5b90600052602060002090600902016007015434141515613b5c57600080fd5b600a600460086000600b600086815260200190815260200160002060009054906101000a900473ffffffffffffffffffffffffffffffffffffffff1673ffffffffffffffffffffffffffffffffffffffff1673ffffffffffffffffffffffffffffffffffffffff16815260200190815260200160002054815481101515613bdf57fe5b906000526020600020906009020160070154023373ffffffffffffffffffffffffffffffffffffffff16311015613cb157600a600460086000600b600086815260200190815260200160002060009054906101000a900473ffffffffffffffffffffffffffffffffffffffff1673ffffffffffffffffffffffffffffffffffffffff1673ffffffffffffffffffffffffffffffffffffffff16815260200190815260200160002054815481101515613c9357fe5b90600052602060002090600902016007015402600054016000819055505b600a6000600b600084815260200190815260200160002060009054906101000a900473ffffffffffffffffffffffffffffffffffffffff1673ffffffffffffffffffffffffffffffffffffffff1673ffffffffffffffffffffffffffffffffffffffff168152602001908152602001600020600180549050908060018154018082558091505090600182039060005260206000200160009091929091909150555060016060604051908101604052806001805490508152602001600b600085815260200190815260200160002060009054906101000a900473ffffffffffffffffffffffffffffffffffffffff1673ffffffffffffffffffffffffffffffffffffffff168152602001600a600460086000600b600089815260200190815260200160002060009054906101000a900473ffffffffffffffffffffffffffffffffffffffff1673ffffffffffffffffffffffffffffffffffffffff1673ffffffffffffffffffffffffffffffffffffffff16815260200190815260200160002054815481101515613e3d57fe5b90600052602060002090600902016007015402815250908060018154018082558091505090600182039060005260206000209060030201600090919290919091506000820151816000015560208201518160010160006101000a81548173ffffffffffffffffffffffffffffffffffffffff021916908373ffffffffffffffffffffffffffffffffffffffff1602179055506040820151816002015550505050565b6000806004600860003373ffffffffffffffffffffffffffffffffffffffff1673ffffffffffffffffffffffffffffffffffffffff16815260200190815260200160002054815481101515613f3057fe5b906000526020600020906009020160020154905042640e76fe4f0062015180620f42408085811515613f5e57fe5b068503811515613f6a57fe5b040262015180601e60646127108088811515613f8257fe5b068803811515613f8e57fe5b04811515613f9857fe5b0602026201518061016d61271087811515613faf57fe5b0602020101030391505090565b6000600c60009054906101000a900473ffffffffffffffffffffffffffffffffffffffff1673ffffffffffffffffffffffffffffffffffffffff163373ffffffffffffffffffffffffffffffffffffffff161415156140a9576040517f08c379a00000000000000000000000000000000000000000000000000000000081526004018080602001828103825260298152602001807fd092d18b20d0bdd0b520d18fd0b2d0bbd18fd0b5d182d0b5d181d18c20d0b1d081526020017fb0d0bdd0bad0bed0bc000000000000000000000000000000000000000000000081525060400191505060405180910390fd5b600d60009054906101000a900473ffffffffffffffffffffffffffffffffffffffff1673ffffffffffffffffffffffffffffffffffffffff163160005403905090565b3373ffffffffffffffffffffffffffffffffffffffff166003600660003373ffffffffffffffffffffffffffffffffffffffff1673ffffffffffffffffffffffffffffffffffffffff1681526020019081526020016000205481548110151561415157fe5b906000526020600020906004020160030160009054906101000a900473ffffffffffffffffffffffffffffffffffffffff1673ffffffffffffffffffffffffffffffffffffffff1614151561420e576040517f08c379a000000000000000000000000000000000000000000000000000000000815260040180806020018281038252601d8152602001807fd0a320d0b2d0b0d18120d0bdd0b5d18220d0bcd0b0d188d0b8d0bdd18b00000081525060200191505060405180910390fd5b60006004600860003373ffffffffffffffffffffffffffffffffffffffff1673ffffffffffffffffffffffffffffffffffffffff1681526020019081526020016000205481548110151561425e57fe5b90600052602060002090600902016007015414151561430b576040517f08c379a00000000000000000000000000000000000000000000000000000000081526004018080602001828103825260368152602001807fd0a320d0b2d0b0d18120d183d0b6d0b520d0bed184d0bed180d0bcd0bbd0b5d081526020017fbdd0b020d181d182d180d0b0d185d0bed0b2d0bad0b00000000000000000000081525060400191505060405180910390fd5b60016004600860003373ffffffffffffffffffffffffffffffffffffffff1673ffffffffffffffffffffffffffffffffffffffff1681526020019081526020016000205481548110151561435b57fe5b906000526020600020906009020160080160036101000a81548160ff021916908315150217905550565b828054600181600116156101000203166002900490600052602060002090601f016020900481019282601f106143c657805160ff19168380011785556143f4565b828001600101855582156143f4579182015b828111156143f35782518255916020019190600101906143d8565b5b5090506144019190614405565b5090565b61442791905b8082111561442357600081600090555060010161440b565b5090565b9056fea165627a7a72305820ca62a688f4af5bb294e19d3b37636a5619c93b56d01723b604bb56e97d5e29e40029",
  "source": "pragma solidity <=0.7.0;\r\ncontract Driver {\r\n    struct Vehicle {//\r\n        uint category;\r\n        uint cost;\r\n        uint exploitation;\r\n        address owner;\r\n    }\r\n    struct Driver {\r\n        string FIO;\r\n        uint licenseid;\r\n        uint expire_date;\r\n        uint category;\r\n        uint exp_start;\r\n        uint accidents;\r\n        uint unpayed_fines;\r\n        uint insurance_deposit;\r\n        bool trafficpolice;\r\n        bool needtobepayed;\r\n        bool bankrequest;\r\n        bool insurancerequest;\r\n        address payable solidityadr;\r\n    }\r\n    struct Fine {\r\n        uint id;\r\n        address payable driver;\r\n        uint time;\r\n        bool finished;\r\n    }\r\n    struct Insurance {\r\n        uint id;\r\n        address payable driver;\r\n        uint sum;\r\n    }\r\n    uint bankdebt = 0;\r\n    Insurance[] insurances;\r\n    Fine[] fines;\r\n    Vehicle[] vehicles;\r\n    Driver[] drivers;\r\n    mapping (address => uint) DriverCategory;\r\n    mapping (address => uint) DriverToVehicle;\r\n    mapping (address => uint) RoleCheck;\r\n    mapping (address => uint) AddressToDriver;\r\n    mapping (address => uint []) DriverFinesID;\r\n    mapping (address => uint []) DriverInsurancesID;\r\n    mapping (uint => address payable) LicenseIdToDriverAddress;\r\n    address payable bank_address = 0x78731D3Ca6b7E34aC0F824c42a7cC18A495cabaB;\r\n    address payable insurance_address = 0x617F2E2fD72FD9D5503197092aC168c91465E7f2;\r\n    address payable default_address = 0x0000000000000000000000000000000000000000;\r\n    constructor () public {\r\n        drivers.push(Driver(\"  \", 0, 0, 0, 2018, 0, 0, 0, true,false,false,false,0x5B38Da6a701c568545dCfcB03FcB875f56beddC4));\r\n        RoleCheck[0x5B38Da6a701c568545dCfcB03FcB875f56beddC4] = 1;AddressToDriver[0x5B38Da6a701c568545dCfcB03FcB875f56beddC4] = drivers.length - 1;\r\n        drivers.push(Driver(\"  \", 0, 0, 0, 2015, 0, 0, 0, false,false,false,false,0xAb8483F64d9C6d1EcF9b849Ae677dD3315835cb2));\r\n        RoleCheck[0xAb8483F64d9C6d1EcF9b849Ae677dD3315835cb2] = 2;AddressToDriver[0xAb8483F64d9C6d1EcF9b849Ae677dD3315835cb2] = drivers.length - 1;\r\n        drivers.push(Driver(\"  \", 0, 0, 0, 2010, 3, 0, 0, false,false,false,false,0x4B20993Bc481177ec7E8f571ceCaE8A9e22C02db));\r\n        RoleCheck[0x4B20993Bc481177ec7E8f571ceCaE8A9e22C02db] = 2;AddressToDriver[0x4B20993Bc481177ec7E8f571ceCaE8A9e22C02db] = drivers.length - 1;\r\n        fines.push(Fine(0,0x9Bd277449C54b3b1b5125Fd919c3E9b6C7Ee7509,22222222,false));\r\n        fines.push(Fine(1,0x9Bd277449C54b3b1b5125Fd919c3E9b6C7Ee7509,222222222,false));\r\n        fines.push(Fine(2,0x9Bd277449C54b3b1b5125Fd919c3E9b6C7Ee7509,222232222,false));\r\n        LicenseIdToDriverAddress[0] = default_address;LicenseIdToDriverAddress[111] = default_address;LicenseIdToDriverAddress[222] = default_address;LicenseIdToDriverAddress[333] = default_address;LicenseIdToDriverAddress[444] = default_address;LicenseIdToDriverAddress[555] = default_address;LicenseIdToDriverAddress[666] = default_address;\r\n    }\r\n//    function driverInfo() public view returns(string memory, uint, uint, uint, uint, uint, uint, uint){\r\n//        require(RoleCheck[msg.sender] != 0,\"  \");\r\n//        return(drivers[AddressToDriver[msg.sender]].FIO, drivers[AddressToDriver[msg.sender]].licenseid, drivers[AddressToDriver[msg.sender]].expire_date, drivers[AddressToDriver[msg.sender]].category, drivers[AddressToDriver[msg.sender]].exp_start, drivers[AddressToDriver[msg.sender]].accidents, drivers[AddressToDriver[msg.sender]].unpayed_fines, drivers[AddressToDriver[msg.sender]].insurance_deposit);\r\n//    }\r\n    function driverInfoTest(address adr) public view returns(string memory, uint, uint, uint){\r\n        require(RoleCheck[adr] != 0,\"  \");\r\n        return(drivers[AddressToDriver[adr]].FIO,drivers[AddressToDriver[adr]].licenseid, drivers[AddressToDriver[adr]].expire_date, drivers[AddressToDriver[adr]].category);\r\n    }\r\n    function driverInfoTest1(address adr) public view returns( uint, uint, uint, uint,bool){\r\n        require(RoleCheck[adr] != 0,\"  \");\r\n        return(drivers[AddressToDriver[adr]].exp_start, drivers[AddressToDriver[adr]].accidents, drivers[AddressToDriver[adr]].unpayed_fines, drivers[AddressToDriver[adr]].insurance_deposit, drivers[AddressToDriver[adr]].trafficpolice);\r\n    }\r\n    function getFinesID() public view returns(uint[] memory ) {\r\n        return(DriverFinesID[msg.sender]);\r\n    }\r\n    function getInsurances() public view returns(uint[] memory) {\r\n        return(DriverInsurancesID[msg.sender]);\r\n    }\r\n    function getFine(uint fineID) public view returns(uint, bool) {\r\n        return(fines[fineID].id, fines[fineID].finished);\r\n    }\r\n    function getInsurance(uint InsuranceID) public view returns(uint, uint) {\r\n        return(insurances[InsuranceID].id,insurances[InsuranceID].sum);\r\n    }\r\n    function driverRegistration(string memory FIO, uint accidents, uint unpayed_fines, uint exp_start) public {\r\n        require(RoleCheck[msg.sender] == 0, \"  \");\r\n        drivers.push(Driver(FIO, 0, 0, 0, exp_start, accidents, unpayed_fines, 0, false, false,false,false, msg.sender));\r\n        RoleCheck[msg.sender] = 2;\r\n        AddressToDriver[msg.sender] = drivers.length - 1;\r\n    }\r\n    function licenseRegistration(uint licenseid, uint expire_date, uint category) public {\r\n        require(RoleCheck[msg.sender] != 0,\"  \");\r\n        require(LicenseIdToDriverAddress[licenseid] == default_address, \"   \");\r\n        drivers[AddressToDriver[msg.sender]].licenseid = licenseid;\r\n        drivers[AddressToDriver[msg.sender]].expire_date = expire_date;\r\n        drivers[AddressToDriver[msg.sender]].category = category;\r\n        DriverCategory[msg.sender] = category;\r\n        LicenseIdToDriverAddress[licenseid] = msg.sender;\r\n    }\r\n    function vehicleRegistration(uint category, uint cost, uint exploitation) public {\r\n        require(DriverCategory[msg.sender] == category, \"     \");\r\n        vehicles.push(Vehicle(category, cost, exploitation, msg.sender));\r\n        DriverToVehicle[msg.sender] = vehicles.length - 1;\r\n    }\r\n    function insuranceDeposit() public payable {\r\n        require(vehicles[DriverToVehicle[msg.sender]].owner == msg.sender, \"   \");\r\n        require(drivers[AddressToDriver[msg.sender]].insurance_deposit == 0, \"    \");\r\n        drivers[AddressToDriver[msg.sender]].insurancerequest = true;\r\n    }\r\n    function insuranceAccept() public payable {\r\n        require(drivers[AddressToDriver[msg.sender]].insurancerequest == true);\r\n        if(10 - vehicles[DriverToVehicle[msg.sender]].exploitation < 0){\r\n            drivers[AddressToDriver[msg.sender]].insurance_deposit = vehicles[DriverToVehicle[msg.sender]].cost * ( (10 - vehicles[DriverToVehicle[msg.sender]].exploitation) - (10 - vehicles[DriverToVehicle[msg.sender]].exploitation)*2 )*1 + 20*drivers[AddressToDriver[msg.sender]].unpayed_fines + 100*drivers[AddressToDriver[msg.sender]].accidents- 20*((now - ((drivers[AddressToDriver[msg.sender]].exp_start-1970)*365*86400))/86400/365);//   100\r\n        }\r\n        else {\r\n            drivers[AddressToDriver[msg.sender]].insurance_deposit = vehicles[DriverToVehicle[msg.sender]].cost * (10 - vehicles[DriverToVehicle[msg.sender]].exploitation)*1 + 20*drivers[AddressToDriver[msg.sender]].unpayed_fines + 100*drivers[AddressToDriver[msg.sender]].accidents- 20*((now - ((drivers[AddressToDriver[msg.sender]].exp_start-1970)*365*86400))/86400/365);//   100\r\n        }\r\n    }\r\n    function fineIssue(uint licenseid) public {\r\n        require(RoleCheck[msg.sender] == 1, \"?? ?? ????????? ??????????? ???\");\r\n        require(LicenseIdToDriverAddress[licenseid] == drivers[AddressToDriver[LicenseIdToDriverAddress[licenseid]]].solidityadr, \"??? ???????? ? ?????? ??????? ?????????????\");\r\n        drivers[AddressToDriver[LicenseIdToDriverAddress[licenseid]]].unpayed_fines++;\r\n        DriverFinesID[LicenseIdToDriverAddress[licenseid]].push(fines.length);\r\n        fines.push(Fine(fines.length, drivers[AddressToDriver[LicenseIdToDriverAddress[licenseid]]].solidityadr, block.timestamp, false));\r\n    }\r\n    function finePay(uint licenseid, uint fineID) public payable{\r\n        require(fines[fineID].finished == false, \"????? ??? ???????\");\r\n        require(msg.sender == drivers[AddressToDriver[LicenseIdToDriverAddress[licenseid]]].solidityadr, \"?? ????? ????? ????? ????????????? ?????????????\");\r\n        if (block.timestamp - fines[fineID].time <= 5*5) {\r\n            require(msg.value == 5,\"   10\");\r\n            bank_address.transfer(5);\r\n            fines[fineID].finished = true;\r\n        }\r\n        else {\r\n            require(msg.value == 10,\"   5\");\r\n            bank_address.transfer(10);\r\n            fines[fineID].finished = true;\r\n        }\r\n        drivers[AddressToDriver[LicenseIdToDriverAddress[licenseid]]].unpayed_fines--;\r\n    }\r\n    function accidentReg(uint licenseid) public {\r\n        require(RoleCheck[msg.sender] == 1, \"    \");\r\n        require(LicenseIdToDriverAddress[licenseid] == drivers[AddressToDriver[LicenseIdToDriverAddress[licenseid]]].solidityadr, \"     \");\r\n        drivers[AddressToDriver[LicenseIdToDriverAddress[licenseid]]].accidents++;\r\n        if (drivers[AddressToDriver[LicenseIdToDriverAddress[licenseid]]].insurance_deposit != 0) {\r\n            drivers[AddressToDriver[LicenseIdToDriverAddress[licenseid]]].needtobepayed = true;\r\n        }\r\n    }\r\n    function insurancePay(uint licenseid) public payable{\r\n        require(msg.sender == insurance_address, \"    \");\r\n        require(drivers[AddressToDriver[LicenseIdToDriverAddress[licenseid]]].needtobepayed == true);\r\n        require(msg.value == drivers[AddressToDriver[LicenseIdToDriverAddress[licenseid]]].insurance_deposit);\r\n        if (msg.sender.balance < drivers[AddressToDriver[LicenseIdToDriverAddress[licenseid]]].insurance_deposit*10) {\r\n            bankdebt = bankdebt + drivers[AddressToDriver[LicenseIdToDriverAddress[licenseid]]].insurance_deposit*10;\r\n        }\r\n        DriverInsurancesID[LicenseIdToDriverAddress[licenseid]].push(insurances.length);\r\n        insurances.push(Insurance(insurances.length,LicenseIdToDriverAddress[licenseid], drivers[AddressToDriver[LicenseIdToDriverAddress[licenseid]]].insurance_deposit*10));\r\n    }\r\n    function viewdebt() public view returns(uint) {\r\n        require(msg.sender == bank_address, \"   \");\r\n        return(bankdebt - insurance_address.balance);\r\n    }\r\n    function insurancecredit() public payable {\r\n        require(msg.sender == bank_address || msg.sender == insurance_address, \"      \");\r\n        require(msg.value == bankdebt - insurance_address.balance, \"  !\");\r\n        insurance_address.transfer(bankdebt - insurance_address.balance);\r\n    }\r\n    function creditReturn() public payable {\r\n        require(msg.sender == insurance_address, \"    \");\r\n        if(insurance_address.balance <= bankdebt) {\r\n            require(msg.value == insurance_address.balance, \"        \");\r\n        }\r\n        else {\r\n            require(msg.value == bankdebt,\"     \");\r\n        }\r\n    }\r\n    function expire_date_secondsCount() public view returns (uint){\r\n        uint x = drivers[AddressToDriver[msg.sender]].expire_date;\r\n        return((((x % 10000) * 365 * 86400 + ((((x - (x % 10000)) / 10000) % 100) * 30 * 86400) + ((x - (x % 1000000))/1000000)*86400)-(1970 * 365 * 86400))- now);\r\n    }\r\n    function licenseRenewal(uint new_licenseid, uint new_expire_date, uint new_category) public {\r\n        require(expire_date_secondsCount() <= 30*86400,\"      \");\r\n        require(drivers[AddressToDriver[msg.sender]].expire_date == 0, \"    \");\r\n        require(LicenseIdToDriverAddress[new_licenseid] == default_address, \"   \");\r\n        LicenseIdToDriverAddress[drivers[AddressToDriver[msg.sender]].licenseid] = default_address;\r\n        drivers[AddressToDriver[msg.sender]].licenseid = new_licenseid;\r\n        drivers[AddressToDriver[msg.sender]].expire_date = new_expire_date;\r\n        drivers[AddressToDriver[msg.sender]].category = new_category;\r\n    }\r\n\r\n}\r\n\r\n\r\n\r\n\r\n\r\n\r\n",
  "sourcePath": "C:/Users//Desktop/driver1/contracts/Driver.sol",
  "compiler": {
    "name": "solc",
    "version": "0.5.1+commit.c8a2cb62.Emscripten.clang"
  },
  "schemaVersion": "3.2.4",
  "updatedAt": "2020-10-25T21:20:29.779Z",
  "devdoc": {
    "methods": {}
  },
  "userdoc": {
    "methods": {}
  }
}