{
  "contractName": "Driver",
  "abi": [
    {
      "inputs": [],
      "payable": false,
      "stateMutability": "nonpayable",
      "type": "constructor"
    },
    {
      "constant": true,
      "inputs": [],
      "name": "driverInfo",
      "outputs": [
        {
          "name": "",
          "type": "string"
        },
        {
          "name": "",
          "type": "uint256"
        },
        {
          "name": "",
          "type": "uint256"
        },
        {
          "name": "",
          "type": "uint256"
        },
        {
          "name": "",
          "type": "uint256"
        },
        {
          "name": "",
          "type": "uint256"
        },
        {
          "name": "",
          "type": "uint256"
        },
        {
          "name": "",
          "type": "uint256"
        }
      ],
      "payable": false,
      "stateMutability": "view",
      "type": "function"
    },
    {
      "constant": false,
      "inputs": [
        {
          "name": "FIO",
          "type": "string"
        },
        {
          "name": "accidents",
          "type": "uint256"
        },
        {
          "name": "unpayed_fines",
          "type": "uint256"
        },
        {
          "name": "exp_start",
          "type": "uint256"
        }
      ],
      "name": "driverRegistration",
      "outputs": [],
      "payable": false,
      "stateMutability": "nonpayable",
      "type": "function"
    },
    {
      "constant": false,
      "inputs": [
        {
          "name": "licenseid",
          "type": "uint256"
        },
        {
          "name": "expire_date",
          "type": "uint256"
        },
        {
          "name": "category",
          "type": "uint256"
        }
      ],
      "name": "licenseRegistration",
      "outputs": [],
      "payable": false,
      "stateMutability": "nonpayable",
      "type": "function"
    },
    {
      "constant": false,
      "inputs": [
        {
          "name": "category",
          "type": "uint256"
        },
        {
          "name": "cost",
          "type": "uint256"
        },
        {
          "name": "exploitation",
          "type": "uint256"
        }
      ],
      "name": "vehicleRegistration",
      "outputs": [],
      "payable": false,
      "stateMutability": "nonpayable",
      "type": "function"
    },
    {
      "constant": false,
      "inputs": [],
      "name": "insuranceDeposit",
      "outputs": [],
      "payable": true,
      "stateMutability": "payable",
      "type": "function"
    },
    {
      "constant": false,
      "inputs": [],
      "name": "insuranceAccept",
      "outputs": [],
      "payable": true,
      "stateMutability": "payable",
      "type": "function"
    },
    {
      "constant": false,
      "inputs": [
        {
          "name": "licenseid",
          "type": "uint256"
        }
      ],
      "name": "fineIssue",
      "outputs": [],
      "payable": false,
      "stateMutability": "nonpayable",
      "type": "function"
    },
    {
      "constant": false,
      "inputs": [
        {
          "name": "licenseid",
          "type": "uint256"
        }
      ],
      "name": "finePay",
      "outputs": [],
      "payable": true,
      "stateMutability": "payable",
      "type": "function"
    },
    {
      "constant": false,
      "inputs": [
        {
          "name": "licenseid",
          "type": "uint256"
        }
      ],
      "name": "accidentReg",
      "outputs": [],
      "payable": false,
      "stateMutability": "nonpayable",
      "type": "function"
    },
    {
      "constant": false,
      "inputs": [
        {
          "name": "licenseid",
          "type": "uint256"
        }
      ],
      "name": "insurancePay",
      "outputs": [],
      "payable": true,
      "stateMutability": "payable",
      "type": "function"
    },
    {
      "constant": true,
      "inputs": [],
      "name": "viewdebt",
      "outputs": [
        {
          "name": "",
          "type": "uint256"
        }
      ],
      "payable": false,
      "stateMutability": "view",
      "type": "function"
    },
    {
      "constant": false,
      "inputs": [],
      "name": "insurancecredit",
      "outputs": [],
      "payable": true,
      "stateMutability": "payable",
      "type": "function"
    },
    {
      "constant": false,
      "inputs": [],
      "name": "creditReturn",
      "outputs": [],
      "payable": true,
      "stateMutability": "payable",
      "type": "function"
    },
    {
      "constant": true,
      "inputs": [],
      "name": "expire_date_secondsCount",
      "outputs": [
        {
          "name": "",
          "type": "uint256"
        }
      ],
      "payable": false,
      "stateMutability": "view",
      "type": "function"
    },
    {
      "constant": false,
      "inputs": [
        {
          "name": "new_licenseid",
          "type": "uint256"
        },
        {
          "name": "new_expire_date",
          "type": "uint256"
        },
        {
          "name": "new_category",
          "type": "uint256"
        }
      ],
      "name": "licenseRenewal",
      "outputs": [],
      "payable": false,
      "stateMutability": "nonpayable",
      "type": "function"
    }
  ],
  "bytecode": "0x6080604052600080557378731d3ca6b7e34ac0f824c42a7cc18a495cabab600960006101000a81548173ffffffffffffffffffffffffffffffffffffffff021916908373ffffffffffffffffffffffffffffffffffffffff16021790555073617f2e2fd72fd9d5503197092ac168c91465e7f2600a60006101000a81548173ffffffffffffffffffffffffffffffffffffffff021916908373ffffffffffffffffffffffffffffffffffffffff1602179055506000600b60006101000a81548173ffffffffffffffffffffffffffffffffffffffff021916908373ffffffffffffffffffffffffffffffffffffffff1602179055503480156200010157600080fd5b5060026101a060405190810160405280606060405190810160405280602681526020017fd098d0b2d0b0d0bdd0bed0b220d098d0b2d0b0d0bd20d098d0b2d0b0d0bdd0be81526020017fd0b2d0b8d187000000000000000000000000000000000000000000000000000081525081526020016000815260200160008152602001600081526020016107e28152602001600081526020016000815260200160008152602001600115158152602001600015158152602001600015158152602001600015158152602001735b38da6a701c568545dcfcb03fcb875f56beddc473ffffffffffffffffffffffffffffffffffffffff168152509080600181540180825580915050906001820390600052602060002090600902016000909192909190915060008201518160000190805190602001906200024092919062000d65565b506020820151816001015560408201518160020155606082015181600301556080820151816004015560a0820151816005015560c0820151816006015560e082015181600701556101008201518160080160006101000a81548160ff0219169083151502179055506101208201518160080160016101000a81548160ff0219169083151502179055506101408201518160080160026101000a81548160ff0219169083151502179055506101608201518160080160036101000a81548160ff0219169083151502179055506101808201518160080160046101000a81548173ffffffffffffffffffffffffffffffffffffffff021916908373ffffffffffffffffffffffffffffffffffffffff160217905550505050600160056000735b38da6a701c568545dcfcb03fcb875f56beddc473ffffffffffffffffffffffffffffffffffffffff1673ffffffffffffffffffffffffffffffffffffffff1681526020019081526020016000208190555060016002805490500360066000735b38da6a701c568545dcfcb03fcb875f56beddc473ffffffffffffffffffffffffffffffffffffffff1673ffffffffffffffffffffffffffffffffffffffff1681526020019081526020016000208190555060026101a060405190810160405280606060405190810160405280602c81526020017fd0a1d0b5d0bcd0b5d0bdd0bed0b220d0a1d0b5d0bcd0b5d0bd20d0a1d0b5d0bc81526020017fd0b5d0bdd0bed0b2d0b8d187000000000000000000000000000000000000000081525081526020016000815260200160008152602001600081526020016107df815260200160008152602001600081526020016000815260200160001515815260200160001515815260200160001515815260200160001515815260200173ab8483f64d9c6d1ecf9b849ae677dd3315835cb273ffffffffffffffffffffffffffffffffffffffff168152509080600181540180825580915050906001820390600052602060002090600902016000909192909190915060008201518160000190805190602001906200054d92919062000d65565b506020820151816001015560408201518160020155606082015181600301556080820151816004015560a0820151816005015560c0820151816006015560e082015181600701556101008201518160080160006101000a81548160ff0219169083151502179055506101208201518160080160016101000a81548160ff0219169083151502179055506101408201518160080160026101000a81548160ff0219169083151502179055506101608201518160080160036101000a81548160ff0219169083151502179055506101808201518160080160046101000a81548173ffffffffffffffffffffffffffffffffffffffff021916908373ffffffffffffffffffffffffffffffffffffffff16021790555050505060026005600073ab8483f64d9c6d1ecf9b849ae677dd3315835cb273ffffffffffffffffffffffffffffffffffffffff1673ffffffffffffffffffffffffffffffffffffffff168152602001908152602001600020819055506001600280549050036006600073ab8483f64d9c6d1ecf9b849ae677dd3315835cb273ffffffffffffffffffffffffffffffffffffffff1673ffffffffffffffffffffffffffffffffffffffff1681526020019081526020016000208190555060026101a060405190810160405280606060405190810160405280602681526020017fd09fd0b5d182d180d0bed0b220d09fd0b5d182d18020d09fd0b5d182d180d0be81526020017fd0b2d0b8d187000000000000000000000000000000000000000000000000000081525081526020016000815260200160008152602001600081526020016107da8152602001600381526020016000815260200160008152602001600015158152602001600015158152602001600015158152602001600015158152602001734b20993bc481177ec7e8f571cecae8a9e22c02db73ffffffffffffffffffffffffffffffffffffffff168152509080600181540180825580915050906001820390600052602060002090600902016000909192909190915060008201518160000190805190602001906200085a92919062000d65565b506020820151816001015560408201518160020155606082015181600301556080820151816004015560a0820151816005015560c0820151816006015560e082015181600701556101008201518160080160006101000a81548160ff0219169083151502179055506101208201518160080160016101000a81548160ff0219169083151502179055506101408201518160080160026101000a81548160ff0219169083151502179055506101608201518160080160036101000a81548160ff0219169083151502179055506101808201518160080160046101000a81548173ffffffffffffffffffffffffffffffffffffffff021916908373ffffffffffffffffffffffffffffffffffffffff160217905550505050600260056000734b20993bc481177ec7e8f571cecae8a9e22c02db73ffffffffffffffffffffffffffffffffffffffff1673ffffffffffffffffffffffffffffffffffffffff1681526020019081526020016000208190555060016002805490500360066000734b20993bc481177ec7e8f571cecae8a9e22c02db73ffffffffffffffffffffffffffffffffffffffff1673ffffffffffffffffffffffffffffffffffffffff16815260200190815260200160002081905550600b60009054906101000a900473ffffffffffffffffffffffffffffffffffffffff166008600080815260200190815260200160002060006101000a81548173ffffffffffffffffffffffffffffffffffffffff021916908373ffffffffffffffffffffffffffffffffffffffff160217905550600b60009054906101000a900473ffffffffffffffffffffffffffffffffffffffff1660086000606f815260200190815260200160002060006101000a81548173ffffffffffffffffffffffffffffffffffffffff021916908373ffffffffffffffffffffffffffffffffffffffff160217905550600b60009054906101000a900473ffffffffffffffffffffffffffffffffffffffff166008600060de815260200190815260200160002060006101000a81548173ffffffffffffffffffffffffffffffffffffffff021916908373ffffffffffffffffffffffffffffffffffffffff160217905550600b60009054906101000a900473ffffffffffffffffffffffffffffffffffffffff166008600061014d815260200190815260200160002060006101000a81548173ffffffffffffffffffffffffffffffffffffffff021916908373ffffffffffffffffffffffffffffffffffffffff160217905550600b60009054906101000a900473ffffffffffffffffffffffffffffffffffffffff16600860006101bc815260200190815260200160002060006101000a81548173ffffffffffffffffffffffffffffffffffffffff021916908373ffffffffffffffffffffffffffffffffffffffff160217905550600b60009054906101000a900473ffffffffffffffffffffffffffffffffffffffff166008600061022b815260200190815260200160002060006101000a81548173ffffffffffffffffffffffffffffffffffffffff021916908373ffffffffffffffffffffffffffffffffffffffff160217905550600b60009054906101000a900473ffffffffffffffffffffffffffffffffffffffff166008600061029a815260200190815260200160002060006101000a81548173ffffffffffffffffffffffffffffffffffffffff021916908373ffffffffffffffffffffffffffffffffffffffff16021790555062000e14565b828054600181600116156101000203166002900490600052602060002090601f016020900481019282601f1062000da857805160ff191683800117855562000dd9565b8280016001018555821562000dd9579182015b8281111562000dd857825182559160200191906001019062000dbb565b5b50905062000de8919062000dec565b5090565b62000e1191905b8082111562000e0d57600081600090555060010162000df3565b5090565b90565b613d638062000e246000396000f3fe6080604052600436106100d5576000357c0100000000000000000000000000000000000000000000000000000000900480631cdade79146100da57806331bd942d146100e457806343bd54ec146100ee5780634dc588b71461013d57806351429476146101475780636938079d1461018257806375b5c11e146102685780638a534d5d146103295780638b1e24ca14610357578063abc07599146103a6578063b35ef932146103f5578063ba8e21ce14610430578063bc10048d1461045e578063c83eff5d14610489578063e5ce6f2e146104b4575b600080fd5b6100e26104be565b005b6100ec610b10565b005b3480156100fa57600080fd5b5061013b6004803603606081101561011157600080fd5b81019080803590602001909291908035906020019092919080359060200190929190505050610dfb565b005b61014561130e565b005b34801561015357600080fd5b506101806004803603602081101561016a57600080fd5b810190808035906020019092919050505061162c565b005b34801561018e57600080fd5b50610266600480360360808110156101a557600080fd5b81019080803590602001906401000000008111156101c257600080fd5b8201836020820111156101d457600080fd5b803590602001918460018302840111640100000000831117156101f657600080fd5b91908080601f016020809104026020016040519081016040528093929190818152602001838380828437600081840152601f19601f820116905080830192505050505050509192919290803590602001909291908035906020019092919080359060200190929190505050611aca565b005b34801561027457600080fd5b5061027d611e1c565b604051808060200189815260200188815260200187815260200186815260200185815260200184815260200183815260200182810382528a818151815260200191508051906020019080838360005b838110156102e75780820151818401526020810190506102cc565b50505050905090810190601f1680156103145780820380516001836020036101000a031916815260200191505b50995050505050505050505060405180910390f35b6103556004803603602081101561033f57600080fd5b81019080803590602001909291905050506122bb565b005b34801561036357600080fd5b506103a46004803603606081101561037a57600080fd5b81019080803590602001909291908035906020019092919080359060200190929190505050612889565b005b3480156103b257600080fd5b506103f3600480360360608110156103c957600080fd5b81019080803590602001909291908035906020019092919080359060200190929190505050612c4c565b005b34801561040157600080fd5b5061042e6004803603602081101561041857600080fd5b8101908080359060200190929190505050612e6b565b005b61045c6004803603602081101561044657600080fd5b81019080803590602001909291905050506132ba565b005b34801561046a57600080fd5b50610473613675565b6040518082815260200191505060405180910390f35b34801561049557600080fd5b5061049e6138c9565b6040518082815260200191505060405180910390f35b6104bc6139f9565b005b600115156002600660003373ffffffffffffffffffffffffffffffffffffffff1673ffffffffffffffffffffffffffffffffffffffff1681526020019081526020016000205481548110151561051057fe5b906000526020600020906009020160080160039054906101000a900460ff16151514151561053d57600080fd5b60006001600460003373ffffffffffffffffffffffffffffffffffffffff1673ffffffffffffffffffffffffffffffffffffffff1681526020019081526020016000205481548110151561058d57fe5b906000526020600020906004020160020154600a0310156108915761016d620151808061016d6107b26002600660003373ffffffffffffffffffffffffffffffffffffffff1673ffffffffffffffffffffffffffffffffffffffff1681526020019081526020016000205481548110151561060457fe5b906000526020600020906009020160040154030202420381151561062457fe5b0481151561062e57fe5b046014026002600660003373ffffffffffffffffffffffffffffffffffffffff1673ffffffffffffffffffffffffffffffffffffffff1681526020019081526020016000205481548110151561068057fe5b9060005260206000209060090201600501546064026002600660003373ffffffffffffffffffffffffffffffffffffffff1673ffffffffffffffffffffffffffffffffffffffff168152602001908152602001600020548154811015156106e357fe5b906000526020600020906009020160060154601402600160026001600460003373ffffffffffffffffffffffffffffffffffffffff1673ffffffffffffffffffffffffffffffffffffffff1681526020019081526020016000205481548110151561074a57fe5b906000526020600020906004020160020154600a03026001600460003373ffffffffffffffffffffffffffffffffffffffff1673ffffffffffffffffffffffffffffffffffffffff168152602001908152602001600020548154811015156107ae57fe5b906000526020600020906004020160020154600a03036001600460003373ffffffffffffffffffffffffffffffffffffffff1673ffffffffffffffffffffffffffffffffffffffff1681526020019081526020016000205481548110151561081257fe5b90600052602060002090600402016001015402020101036002600660003373ffffffffffffffffffffffffffffffffffffffff1673ffffffffffffffffffffffffffffffffffffffff1681526020019081526020016000205481548110151561087757fe5b906000526020600020906009020160070181905550610b0e565b61016d620151808061016d6107b26002600660003373ffffffffffffffffffffffffffffffffffffffff1673ffffffffffffffffffffffffffffffffffffffff168152602001908152602001600020548154811015156108ed57fe5b906000526020600020906009020160040154030202420381151561090d57fe5b0481151561091757fe5b046014026002600660003373ffffffffffffffffffffffffffffffffffffffff1673ffffffffffffffffffffffffffffffffffffffff1681526020019081526020016000205481548110151561096957fe5b9060005260206000209060090201600501546064026002600660003373ffffffffffffffffffffffffffffffffffffffff1673ffffffffffffffffffffffffffffffffffffffff168152602001908152602001600020548154811015156109cc57fe5b906000526020600020906009020160060154601402600180600460003373ffffffffffffffffffffffffffffffffffffffff1673ffffffffffffffffffffffffffffffffffffffff16815260200190815260200160002054815481101515610a3057fe5b906000526020600020906004020160020154600a036001600460003373ffffffffffffffffffffffffffffffffffffffff1673ffffffffffffffffffffffffffffffffffffffff16815260200190815260200160002054815481101515610a9357fe5b90600052602060002090600402016001015402020101036002600660003373ffffffffffffffffffffffffffffffffffffffff1673ffffffffffffffffffffffffffffffffffffffff16815260200190815260200160002054815481101515610af857fe5b9060005260206000209060090201600701819055505b565b600960009054906101000a900473ffffffffffffffffffffffffffffffffffffffff1673ffffffffffffffffffffffffffffffffffffffff163373ffffffffffffffffffffffffffffffffffffffff161480610bb95750600a60009054906101000a900473ffffffffffffffffffffffffffffffffffffffff1673ffffffffffffffffffffffffffffffffffffffff163373ffffffffffffffffffffffffffffffffffffffff16145b1515610c79576040517f08c379a00000000000000000000000000000000000000000000000000000000081526004018080602001828103825260568152602001807fd092d18b20d0bdd0b520d18fd0b2d0bbd18fd0b5d182d0b5d181d18c20d0b1d081526020017fb0d0bdd0bad0bed0bc20d0b8d0bbd0b820d181d182d180d0b0d185d0bed0b2d081526020017fbed0b920d0bad0bed0bcd0bfd0b0d0bdd0b8d0b5d0b90000000000000000000081525060600191505060405180910390fd5b600a60009054906101000a900473ffffffffffffffffffffffffffffffffffffffff1673ffffffffffffffffffffffffffffffffffffffff16316000540334141515610d53576040517f08c379a00000000000000000000000000000000000000000000000000000000081526004018080602001828103825260258152602001807fd09dd183d0b6d0bdd0be20d0b1d0bed0bbd18cd188d0b520d0b7d0bed0bbd0be81526020017fd182d0b02100000000000000000000000000000000000000000000000000000081525060400191505060405180910390fd5b600a60009054906101000a900473ffffffffffffffffffffffffffffffffffffffff1673ffffffffffffffffffffffffffffffffffffffff166108fc600a60009054906101000a900473ffffffffffffffffffffffffffffffffffffffff1673ffffffffffffffffffffffffffffffffffffffff1631600054039081150290604051600060405180830381858888f19350505050158015610df8573d6000803e3d6000fd5b50565b62278d00610e07613675565b11151515610eef576040517f08c379a00000000000000000000000000000000000000000000000000000000081526004018080602001828103825260628152602001807fd094d0be20d0bad0bed0bdd186d0b020d181d180d0bed0bad0b020d0bed0bad081526020017fbed0bdd187d0b0d0bdd0b8d18f20d183d0b4d0bed181d182d0bed0b2d0b5d18081526020017fd0b5d0bdd0b8d18f20d0b1d0bed0bbd18cd188d0b520d0bcd0b5d181d18fd18681526020017fd0b000000000000000000000000000000000000000000000000000000000000081525060800191505060405180910390fd5b60006002600660003373ffffffffffffffffffffffffffffffffffffffff1673ffffffffffffffffffffffffffffffffffffffff16815260200190815260200160002054815481101515610f3f57fe5b906000526020600020906009020160020154141515610fec576040517f08c379a00000000000000000000000000000000000000000000000000000000081526004018080602001828103825260388152602001807fd0a320d0b2d0b0d18120d0b5d181d182d18c20d0bdd0b5d0bed0bfd0bbd0b0d181526020017f87d0b5d0bdd0bdd18bd0b520d188d182d180d0b0d184d18b000000000000000081525060400191505060405180910390fd5b600b60009054906101000a900473ffffffffffffffffffffffffffffffffffffffff1673ffffffffffffffffffffffffffffffffffffffff166008600085815260200190815260200160002060009054906101000a900473ffffffffffffffffffffffffffffffffffffffff1673ffffffffffffffffffffffffffffffffffffffff1614151561110a576040517f08c379a00000000000000000000000000000000000000000000000000000000081526004018080602001828103825260258152602001807fd0add182d0bed18220d0bdd0bed0bcd0b5d18020d183d0b6d0b520d0b7d0b0d081526020017fbdd18fd18200000000000000000000000000000000000000000000000000000081525060400191505060405180910390fd5b600b60009054906101000a900473ffffffffffffffffffffffffffffffffffffffff16600860006002600660003373ffffffffffffffffffffffffffffffffffffffff1673ffffffffffffffffffffffffffffffffffffffff1681526020019081526020016000205481548110151561117f57fe5b906000526020600020906009020160010154815260200190815260200160002060006101000a81548173ffffffffffffffffffffffffffffffffffffffff021916908373ffffffffffffffffffffffffffffffffffffffff160217905550826002600660003373ffffffffffffffffffffffffffffffffffffffff1673ffffffffffffffffffffffffffffffffffffffff1681526020019081526020016000205481548110151561122c57fe5b906000526020600020906009020160010181905550816002600660003373ffffffffffffffffffffffffffffffffffffffff1673ffffffffffffffffffffffffffffffffffffffff1681526020019081526020016000205481548110151561129057fe5b906000526020600020906009020160020181905550806002600660003373ffffffffffffffffffffffffffffffffffffffff1673ffffffffffffffffffffffffffffffffffffffff168152602001908152602001600020548154811015156112f457fe5b906000526020600020906009020160030181905550505050565b600a60009054906101000a900473ffffffffffffffffffffffffffffffffffffffff1673ffffffffffffffffffffffffffffffffffffffff163373ffffffffffffffffffffffffffffffffffffffff1614151561141f576040517f08c379a00000000000000000000000000000000000000000000000000000000081526004018080602001828103825260428152602001807fd092d18b20d0bdd0b520d18fd0b2d0bbd18fd0b5d182d0b5d181d18c20d181d181526020017f82d180d0b0d185d0bed0b2d0bed0b920d0bad0bed0bcd0bfd0b0d0bdd0b8d0b581526020017fd0b900000000000000000000000000000000000000000000000000000000000081525060600191505060405180910390fd5b600054600a60009054906101000a900473ffffffffffffffffffffffffffffffffffffffff1673ffffffffffffffffffffffffffffffffffffffff163111151561156457600a60009054906101000a900473ffffffffffffffffffffffffffffffffffffffff1673ffffffffffffffffffffffffffffffffffffffff16313414151561155f576040517f08c379a000000000000000000000000000000000000000000000000000000000815260040180806020018281038252605a8152602001807fd092d18b20d0b4d0bed0bbd0b6d0bdd18b20d0bfd0b5d180d0b5d0b2d0b5d18181526020017fd182d0b820d0b2d181d0b520d0b4d0b5d0bdd18cd0b3d0b820d0b220d181d18781526020017fd191d18220d0b4d0bed0bbd0b3d0b020d0b1d0b0d0bdd0bad18300000000000081525060600191505060405180910390fd5b61162a565b60005434141515611629576040517f08c379a00000000000000000000000000000000000000000000000000000000081526004018080602001828103825260418152602001807fd092d18b20d0b4d0bed0bbd0b6d0bdd18b20d0bfd0b5d180d0b5d0b2d0b5d18181526020017fd182d0b820d0b2d181d18e20d181d183d0bcd0bcd18320d0b4d0bed0bbd0b3d081526020017fb00000000000000000000000000000000000000000000000000000000000000081525060600191505060405180910390fd5b5b565b6001600560003373ffffffffffffffffffffffffffffffffffffffff1673ffffffffffffffffffffffffffffffffffffffff16815260200190815260200160002054141515611709576040517f08c379a000000000000000000000000000000000000000000000000000000000815260040180806020018281038252603a8152602001807fd092d18b20d0bdd0b520d18fd0b2d0bbd18fd0b5d182d0b5d181d18c20d181d081526020017fbed182d180d183d0b4d0bdd0b8d0bad0bed0bc20d094d09fd0a100000000000081525060400191505060405180910390fd5b6002600660006008600085815260200190815260200160002060009054906101000a900473ffffffffffffffffffffffffffffffffffffffff1673ffffffffffffffffffffffffffffffffffffffff1673ffffffffffffffffffffffffffffffffffffffff1681526020019081526020016000205481548110151561178a57fe5b906000526020600020906009020160080160049054906101000a900473ffffffffffffffffffffffffffffffffffffffff1673ffffffffffffffffffffffffffffffffffffffff166008600083815260200190815260200160002060009054906101000a900473ffffffffffffffffffffffffffffffffffffffff1673ffffffffffffffffffffffffffffffffffffffff161415156118dd576040517f08c379a00000000000000000000000000000000000000000000000000000000081526004018080602001828103825260518152602001807fd09dd0b5d18220d0b2d0bed0b4d0b8d182d0b5d0bbd18f20d18120d0b4d0b0d081526020017fbdd0bdd18bd0bc20d0bdd0bed0bcd0b5d180d0bed0bc20d183d0b4d0bed181d181526020017f82d0bed0b2d0b5d180d0b5d0bdd0b8d18f00000000000000000000000000000081525060600191505060405180910390fd5b6002600660006008600085815260200190815260200160002060009054906101000a900473ffffffffffffffffffffffffffffffffffffffff1673ffffffffffffffffffffffffffffffffffffffff1673ffffffffffffffffffffffffffffffffffffffff1681526020019081526020016000205481548110151561195e57fe5b90600052602060002090600902016005016000815480929190600101919050555060006002600660006008600086815260200190815260200160002060009054906101000a900473ffffffffffffffffffffffffffffffffffffffff1673ffffffffffffffffffffffffffffffffffffffff1673ffffffffffffffffffffffffffffffffffffffff16815260200190815260200160002054815481101515611a0257fe5b906000526020600020906009020160070154141515611ac75760016002600660006008600086815260200190815260200160002060009054906101000a900473ffffffffffffffffffffffffffffffffffffffff1673ffffffffffffffffffffffffffffffffffffffff1673ffffffffffffffffffffffffffffffffffffffff16815260200190815260200160002054815481101515611a9e57fe5b906000526020600020906009020160080160016101000a81548160ff0219169083151502179055505b50565b6000600560003373ffffffffffffffffffffffffffffffffffffffff1673ffffffffffffffffffffffffffffffffffffffff16815260200190815260200160002054141515611ba7576040517f08c379a000000000000000000000000000000000000000000000000000000000815260040180806020018281038252602c8152602001807fd092d18b20d183d0b6d0b520d0b7d0b0d180d0b5d0b3d0b8d181d182d180d0b881526020017fd180d0bed0b2d0b0d0bdd18b000000000000000000000000000000000000000081525060400191505060405180910390fd5b60026101a060405190810160405280868152602001600081526020016000815260200160008152602001838152602001858152602001848152602001600081526020016000151581526020016000151581526020016000151581526020016000151581526020013373ffffffffffffffffffffffffffffffffffffffff16815250908060018154018082558091505090600182039060005260206000209060090201600090919290919091506000820151816000019080519060200190611c6f929190613c92565b506020820151816001015560408201518160020155606082015181600301556080820151816004015560a0820151816005015560c0820151816006015560e082015181600701556101008201518160080160006101000a81548160ff0219169083151502179055506101208201518160080160016101000a81548160ff0219169083151502179055506101408201518160080160026101000a81548160ff0219169083151502179055506101608201518160080160036101000a81548160ff0219169083151502179055506101808201518160080160046101000a81548173ffffffffffffffffffffffffffffffffffffffff021916908373ffffffffffffffffffffffffffffffffffffffff1602179055505050506002600560003373ffffffffffffffffffffffffffffffffffffffff1673ffffffffffffffffffffffffffffffffffffffff16815260200190815260200160002081905550600160028054905003600660003373ffffffffffffffffffffffffffffffffffffffff1673ffffffffffffffffffffffffffffffffffffffff1681526020019081526020016000208190555050505050565b6060600080600080600080600080600560003373ffffffffffffffffffffffffffffffffffffffff1673ffffffffffffffffffffffffffffffffffffffff1681526020019081526020016000205414151515611f06576040517f08c379a000000000000000000000000000000000000000000000000000000000815260040180806020018281038252602a8152602001807fd092d18b20d0bdd0b520d0b7d0b0d180d0b5d0b3d0b8d181d182d180d0b8d18081526020017fd0bed0b2d0b0d0bdd18b0000000000000000000000000000000000000000000081525060400191505060405180910390fd5b6002600660003373ffffffffffffffffffffffffffffffffffffffff1673ffffffffffffffffffffffffffffffffffffffff16815260200190815260200160002054815481101515611f5457fe5b90600052602060002090600902016000016002600660003373ffffffffffffffffffffffffffffffffffffffff1673ffffffffffffffffffffffffffffffffffffffff16815260200190815260200160002054815481101515611fb357fe5b9060005260206000209060090201600101546002600660003373ffffffffffffffffffffffffffffffffffffffff1673ffffffffffffffffffffffffffffffffffffffff1681526020019081526020016000205481548110151561201357fe5b9060005260206000209060090201600201546002600660003373ffffffffffffffffffffffffffffffffffffffff1673ffffffffffffffffffffffffffffffffffffffff1681526020019081526020016000205481548110151561207357fe5b9060005260206000209060090201600301546002600660003373ffffffffffffffffffffffffffffffffffffffff1673ffffffffffffffffffffffffffffffffffffffff168152602001908152602001600020548154811015156120d357fe5b9060005260206000209060090201600401546002600660003373ffffffffffffffffffffffffffffffffffffffff1673ffffffffffffffffffffffffffffffffffffffff1681526020019081526020016000205481548110151561213357fe5b9060005260206000209060090201600501546002600660003373ffffffffffffffffffffffffffffffffffffffff1673ffffffffffffffffffffffffffffffffffffffff1681526020019081526020016000205481548110151561219357fe5b9060005260206000209060090201600601546002600660003373ffffffffffffffffffffffffffffffffffffffff1673ffffffffffffffffffffffffffffffffffffffff168152602001908152602001600020548154811015156121f357fe5b906000526020600020906009020160070154878054600181600116156101000203166002900480601f01602080910402602001604051908101604052809291908181526020018280546001816001161561010002031660029004801561229a5780601f1061226f5761010080835404028352916020019161229a565b820191906000526020600020905b81548152906001019060200180831161227d57829003601f168201915b50505050509750975097509750975097509750975097509091929394959697565b6002600660006008600085815260200190815260200160002060009054906101000a900473ffffffffffffffffffffffffffffffffffffffff1673ffffffffffffffffffffffffffffffffffffffff1673ffffffffffffffffffffffffffffffffffffffff1681526020019081526020016000205481548110151561233c57fe5b906000526020600020906009020160080160049054906101000a900473ffffffffffffffffffffffffffffffffffffffff1673ffffffffffffffffffffffffffffffffffffffff163373ffffffffffffffffffffffffffffffffffffffff1614151561245c576040517f08c379a000000000000000000000000000000000000000000000000000000000815260040180806020018281038252605b8152602001807fd092d18b20d0b2d0b2d0b5d0bbd0b820d187d183d0b6d0bed0b920d0bdd0bed081526020017fbcd0b5d18020d0b2d0bed0b4d0b8d182d0b5d0bbd18cd181d0bad0bed0b3d0be81526020017f20d183d0b4d0bed181d182d0bed0b2d0b5d180d0b5d0bdd0b8d18f000000000081525060600191505060405180910390fd5b42600760006008600085815260200190815260200160002060009054906101000a900473ffffffffffffffffffffffffffffffffffffffff1673ffffffffffffffffffffffffffffffffffffffff1673ffffffffffffffffffffffffffffffffffffffff1681526020019081526020016000205410156125e357600a34141515612574576040517f08c379a00000000000000000000000000000000000000000000000000000000081526004018080602001828103825260278152602001807fd09ed0bfd0bbd0b0d182d0b020d188d182d180d0b0d184d0b020d181d182d0be81526020017fd0b8d1822031300000000000000000000000000000000000000000000000000081525060400191505060405180910390fd5b600960009054906101000a900473ffffffffffffffffffffffffffffffffffffffff1673ffffffffffffffffffffffffffffffffffffffff166108fc600a9081150290604051600060405180830381858888f193505050501580156125dd573d6000803e3d6000fd5b506126ec565b600534141515612681576040517f08c379a00000000000000000000000000000000000000000000000000000000081526004018080602001828103825260268152602001807fd09ed0bfd0bbd0b0d182d0b020d188d182d180d0b0d184d0b020d181d182d0be81526020017fd0b8d1822035000000000000000000000000000000000000000000000000000081525060400191505060405180910390fd5b600960009054906101000a900473ffffffffffffffffffffffffffffffffffffffff1673ffffffffffffffffffffffffffffffffffffffff166108fc60059081150290604051600060405180830381858888f193505050501580156126ea573d6000803e3d6000fd5b505b6000600760006002600660006008600088815260200190815260200160002060009054906101000a900473ffffffffffffffffffffffffffffffffffffffff1673ffffffffffffffffffffffffffffffffffffffff1673ffffffffffffffffffffffffffffffffffffffff1681526020019081526020016000205481548110151561277357fe5b906000526020600020906009020160080160049054906101000a900473ffffffffffffffffffffffffffffffffffffffff1673ffffffffffffffffffffffffffffffffffffffff1673ffffffffffffffffffffffffffffffffffffffff168152602001908152602001600020819055506002600660006008600085815260200190815260200160002060009054906101000a900473ffffffffffffffffffffffffffffffffffffffff1673ffffffffffffffffffffffffffffffffffffffff1673ffffffffffffffffffffffffffffffffffffffff1681526020019081526020016000205481548110151561286457fe5b9060005260206000209060090201600601600081548092919060019003919050555050565b6000600560003373ffffffffffffffffffffffffffffffffffffffff1673ffffffffffffffffffffffffffffffffffffffff1681526020019081526020016000205414151515612967576040517f08c379a000000000000000000000000000000000000000000000000000000000815260040180806020018281038252602a8152602001807fd092d18b20d0bdd0b520d0b7d0b0d180d0b5d0b3d0b8d181d182d180d0b8d18081526020017fd0bed0b2d0b0d0bdd18b0000000000000000000000000000000000000000000081525060400191505060405180910390fd5b600b60009054906101000a900473ffffffffffffffffffffffffffffffffffffffff1673ffffffffffffffffffffffffffffffffffffffff166008600085815260200190815260200160002060009054906101000a900473ffffffffffffffffffffffffffffffffffffffff1673ffffffffffffffffffffffffffffffffffffffff16141515612a85576040517f08c379a00000000000000000000000000000000000000000000000000000000081526004018080602001828103825260258152602001807fd0add182d0bed18220d0bdd0bed0bcd0b5d18020d183d0b6d0b520d0b7d0b0d081526020017fbdd18fd18200000000000000000000000000000000000000000000000000000081525060400191505060405180910390fd5b826002600660003373ffffffffffffffffffffffffffffffffffffffff1673ffffffffffffffffffffffffffffffffffffffff16815260200190815260200160002054815481101515612ad457fe5b906000526020600020906009020160010181905550816002600660003373ffffffffffffffffffffffffffffffffffffffff1673ffffffffffffffffffffffffffffffffffffffff16815260200190815260200160002054815481101515612b3857fe5b906000526020600020906009020160020181905550806002600660003373ffffffffffffffffffffffffffffffffffffffff1673ffffffffffffffffffffffffffffffffffffffff16815260200190815260200160002054815481101515612b9c57fe5b90600052602060002090600902016003018190555080600360003373ffffffffffffffffffffffffffffffffffffffff1673ffffffffffffffffffffffffffffffffffffffff16815260200190815260200160002081905550336008600085815260200190815260200160002060006101000a81548173ffffffffffffffffffffffffffffffffffffffff021916908373ffffffffffffffffffffffffffffffffffffffff160217905550505050565b82600360003373ffffffffffffffffffffffffffffffffffffffff1673ffffffffffffffffffffffffffffffffffffffff16815260200190815260200160002054141515612d4e576040517f08c379a000000000000000000000000000000000000000000000000000000000815260040180806020018281038252604b8152602001807fd092d18b20d0bdd0b520d0bed0b1d0bbd0b0d0b4d0b0d0b5d182d0b520d0bfd181526020017f80d0b0d0b2d0b0d0bcd0b820d0b4d0b0d0bdd0bdd0bed0b920d0bad0b0d182d081526020017fb5d0b3d0bed180d0b8d0b800000000000000000000000000000000000000000081525060600191505060405180910390fd5b60016080604051908101604052808581526020018481526020018381526020013373ffffffffffffffffffffffffffffffffffffffff168152509080600181540180825580915050906001820390600052602060002090600402016000909192909190915060008201518160000155602082015181600101556040820151816002015560608201518160030160006101000a81548173ffffffffffffffffffffffffffffffffffffffff021916908373ffffffffffffffffffffffffffffffffffffffff1602179055505050506001808054905003600460003373ffffffffffffffffffffffffffffffffffffffff1673ffffffffffffffffffffffffffffffffffffffff16815260200190815260200160002081905550505050565b6001600560003373ffffffffffffffffffffffffffffffffffffffff1673ffffffffffffffffffffffffffffffffffffffff16815260200190815260200160002054141515612f48576040517f08c379a000000000000000000000000000000000000000000000000000000000815260040180806020018281038252603a8152602001807fd092d18b20d0bdd0b520d18fd0b2d0bbd18fd0b5d182d0b5d181d18c20d181d081526020017fbed182d180d183d0b4d0bdd0b8d0bad0bed0bc20d094d09fd0a100000000000081525060400191505060405180910390fd5b6002600660006008600085815260200190815260200160002060009054906101000a900473ffffffffffffffffffffffffffffffffffffffff1673ffffffffffffffffffffffffffffffffffffffff1673ffffffffffffffffffffffffffffffffffffffff16815260200190815260200160002054815481101515612fc957fe5b906000526020600020906009020160080160049054906101000a900473ffffffffffffffffffffffffffffffffffffffff1673ffffffffffffffffffffffffffffffffffffffff166008600083815260200190815260200160002060009054906101000a900473ffffffffffffffffffffffffffffffffffffffff1673ffffffffffffffffffffffffffffffffffffffff1614151561311c576040517f08c379a00000000000000000000000000000000000000000000000000000000081526004018080602001828103825260518152602001807fd09dd0b5d18220d0b2d0bed0b4d0b8d182d0b5d0bbd18f20d18120d0b4d0b0d081526020017fbdd0bdd18bd0bc20d0bdd0bed0bcd0b5d180d0bed0bc20d183d0b4d0bed181d181526020017f82d0bed0b2d0b5d180d0b5d0bdd0b8d18f00000000000000000000000000000081525060600191505060405180910390fd5b6002600660006008600085815260200190815260200160002060009054906101000a900473ffffffffffffffffffffffffffffffffffffffff1673ffffffffffffffffffffffffffffffffffffffff1673ffffffffffffffffffffffffffffffffffffffff1681526020019081526020016000205481548110151561319d57fe5b90600052602060002090600902016006016000815480929190600101919050555060194201600760006002600660006008600088815260200190815260200160002060009054906101000a900473ffffffffffffffffffffffffffffffffffffffff1673ffffffffffffffffffffffffffffffffffffffff1673ffffffffffffffffffffffffffffffffffffffff1681526020019081526020016000205481548110151561324757fe5b906000526020600020906009020160080160049054906101000a900473ffffffffffffffffffffffffffffffffffffffff1673ffffffffffffffffffffffffffffffffffffffff1673ffffffffffffffffffffffffffffffffffffffff1681526020019081526020016000208190555050565b600a60009054906101000a900473ffffffffffffffffffffffffffffffffffffffff1673ffffffffffffffffffffffffffffffffffffffff163373ffffffffffffffffffffffffffffffffffffffff161415156133cb576040517f08c379a00000000000000000000000000000000000000000000000000000000081526004018080602001828103825260428152602001807fd092d18b20d0bdd0b520d18fd0b2d0bbd18fd0b5d182d0b5d181d18c20d181d181526020017f82d180d0b0d185d0bed0b2d0bed0b920d0bad0bed0bcd0bfd0b0d0bdd0b8d0b581526020017fd0b900000000000000000000000000000000000000000000000000000000000081525060600191505060405180910390fd5b600115156002600660006008600086815260200190815260200160002060009054906101000a900473ffffffffffffffffffffffffffffffffffffffff1673ffffffffffffffffffffffffffffffffffffffff1673ffffffffffffffffffffffffffffffffffffffff1681526020019081526020016000205481548110151561345057fe5b906000526020600020906009020160080160019054906101000a900460ff16151514151561347d57600080fd5b6002600660006008600085815260200190815260200160002060009054906101000a900473ffffffffffffffffffffffffffffffffffffffff1673ffffffffffffffffffffffffffffffffffffffff1673ffffffffffffffffffffffffffffffffffffffff168152602001908152602001600020548154811015156134fe57fe5b9060005260206000209060090201600701543414151561351d57600080fd5b600a6002600660006008600086815260200190815260200160002060009054906101000a900473ffffffffffffffffffffffffffffffffffffffff1673ffffffffffffffffffffffffffffffffffffffff1673ffffffffffffffffffffffffffffffffffffffff168152602001908152602001600020548154811015156135a057fe5b906000526020600020906009020160070154023373ffffffffffffffffffffffffffffffffffffffff1631101561367257600a6002600660006008600086815260200190815260200160002060009054906101000a900473ffffffffffffffffffffffffffffffffffffffff1673ffffffffffffffffffffffffffffffffffffffff1673ffffffffffffffffffffffffffffffffffffffff1681526020019081526020016000205481548110151561365457fe5b90600052602060002090600902016007015402600054016000819055505b50565b6000640e77272d8062015180620f4240806002600660003373ffffffffffffffffffffffffffffffffffffffff1673ffffffffffffffffffffffffffffffffffffffff168152602001908152602001600020548154811015156136d457fe5b9060005260206000209060090201600201548115156136ef57fe5b066002600660003373ffffffffffffffffffffffffffffffffffffffff1673ffffffffffffffffffffffffffffffffffffffff1681526020019081526020016000205481548110151561373e57fe5b9060005260206000209060090201600201540381151561375a57fe5b040262015180601e6064612710806002600660003373ffffffffffffffffffffffffffffffffffffffff1673ffffffffffffffffffffffffffffffffffffffff168152602001908152602001600020548154811015156137b657fe5b9060005260206000209060090201600201548115156137d157fe5b066002600660003373ffffffffffffffffffffffffffffffffffffffff1673ffffffffffffffffffffffffffffffffffffffff1681526020019081526020016000205481548110151561382057fe5b9060005260206000209060090201600201540381151561383c57fe5b0481151561384657fe5b0602026201518061016d6127106002600660003373ffffffffffffffffffffffffffffffffffffffff1673ffffffffffffffffffffffffffffffffffffffff168152602001908152602001600020548154811015156138a157fe5b9060005260206000209060090201600201548115156138bc57fe5b0602020101034203905090565b6000600960009054906101000a900473ffffffffffffffffffffffffffffffffffffffff1673ffffffffffffffffffffffffffffffffffffffff163373ffffffffffffffffffffffffffffffffffffffff161415156139b6576040517f08c379a00000000000000000000000000000000000000000000000000000000081526004018080602001828103825260298152602001807fd092d18b20d0bdd0b520d18fd0b2d0bbd18fd0b5d182d0b5d181d18c20d0b1d081526020017fb0d0bdd0bad0bed0bc000000000000000000000000000000000000000000000081525060400191505060405180910390fd5b600a60009054906101000a900473ffffffffffffffffffffffffffffffffffffffff1673ffffffffffffffffffffffffffffffffffffffff163160005403905090565b3373ffffffffffffffffffffffffffffffffffffffff166001600460003373ffffffffffffffffffffffffffffffffffffffff1673ffffffffffffffffffffffffffffffffffffffff16815260200190815260200160002054815481101515613a5e57fe5b906000526020600020906004020160030160009054906101000a900473ffffffffffffffffffffffffffffffffffffffff1673ffffffffffffffffffffffffffffffffffffffff16141515613b1b576040517f08c379a000000000000000000000000000000000000000000000000000000000815260040180806020018281038252601d8152602001807fd0a320d0b2d0b0d18120d0bdd0b5d18220d0bcd0b0d188d0b8d0bdd18b00000081525060200191505060405180910390fd5b60006002600660003373ffffffffffffffffffffffffffffffffffffffff1673ffffffffffffffffffffffffffffffffffffffff16815260200190815260200160002054815481101515613b6b57fe5b906000526020600020906009020160070154141515613c18576040517f08c379a00000000000000000000000000000000000000000000000000000000081526004018080602001828103825260368152602001807fd0a320d0b2d0b0d18120d183d0b6d0b520d0bed184d0bed180d0bcd0bbd0b5d081526020017fbdd0b020d181d182d180d0b0d185d0bed0b2d0bad0b00000000000000000000081525060400191505060405180910390fd5b60016002600660003373ffffffffffffffffffffffffffffffffffffffff1673ffffffffffffffffffffffffffffffffffffffff16815260200190815260200160002054815481101515613c6857fe5b906000526020600020906009020160080160036101000a81548160ff021916908315150217905550565b828054600181600116156101000203166002900490600052602060002090601f016020900481019282601f10613cd357805160ff1916838001178555613d01565b82800160010185558215613d01579182015b82811115613d00578251825591602001919060010190613ce5565b5b509050613d0e9190613d12565b5090565b613d3491905b80821115613d30576000816000905550600101613d18565b5090565b9056fea165627a7a723058205c5c4c7ae29f2c9d107a732bd6e894b2e537f8d224ed037e5785536c61b6c8880029",
  "source": "pragma solidity <=0.7.0;\r\ncontract Driver {\r\n    struct Vehicle {//\r\n        uint category;\r\n        uint cost;\r\n        uint exploitation;\r\n        address owner;\r\n    }\r\n    struct Driver {\r\n        string FIO;\r\n        uint licenseid;\r\n        uint expire_date;\r\n        uint category;\r\n        uint exp_start;\r\n        uint accidents;\r\n        uint unpayed_fines;\r\n        uint insurance_deposit;\r\n        bool trafficpolice;\r\n        bool needtobepayed;\r\n        bool bankrequest;\r\n        bool insurancerequest;\r\n        address payable solidityadr;\r\n    }\r\n    uint bankdebt = 0;\r\n    Vehicle[] vehicles;\r\n    Driver[] drivers;\r\n    mapping (address => uint) DriverCategory;\r\n    mapping (address => uint) DriverToVehicle;\r\n    mapping (address => uint) RoleCheck;\r\n    mapping (address => uint) AddressToDriver;\r\n    mapping (address => uint) FineDiscount;\r\n    mapping (uint => address payable) LicenseIdToDriverAddress;\r\n    address payable bank_address = 0x78731D3Ca6b7E34aC0F824c42a7cC18A495cabaB;\r\n    address payable insurance_address = 0x617F2E2fD72FD9D5503197092aC168c91465E7f2;\r\n    address payable default_address = 0x0000000000000000000000000000000000000000;\r\n    constructor () public {\r\n        drivers.push(Driver(\"  \", 0, 0, 0, 2018, 0, 0, 0, true,false,false,false,0x5B38Da6a701c568545dCfcB03FcB875f56beddC4));RoleCheck[0x5B38Da6a701c568545dCfcB03FcB875f56beddC4] = 1;AddressToDriver[0x5B38Da6a701c568545dCfcB03FcB875f56beddC4] = drivers.length - 1;\r\n        drivers.push(Driver(\"  \", 0, 0, 0, 2015, 0, 0, 0, false,false,false,false,0xAb8483F64d9C6d1EcF9b849Ae677dD3315835cb2));RoleCheck[0xAb8483F64d9C6d1EcF9b849Ae677dD3315835cb2] = 2;AddressToDriver[0xAb8483F64d9C6d1EcF9b849Ae677dD3315835cb2] = drivers.length - 1;\r\n        drivers.push(Driver(\"  \", 0, 0, 0, 2010, 3, 0, 0, false,false,false,false,0x4B20993Bc481177ec7E8f571ceCaE8A9e22C02db));RoleCheck[0x4B20993Bc481177ec7E8f571ceCaE8A9e22C02db] = 2;AddressToDriver[0x4B20993Bc481177ec7E8f571ceCaE8A9e22C02db] = drivers.length - 1;\r\n        LicenseIdToDriverAddress[0] = default_address;LicenseIdToDriverAddress[111] = default_address;LicenseIdToDriverAddress[222] = default_address;LicenseIdToDriverAddress[333] = default_address;LicenseIdToDriverAddress[444] = default_address;LicenseIdToDriverAddress[555] = default_address;LicenseIdToDriverAddress[666] = default_address;\r\n    }\r\n    function driverInfo() public view returns(string memory, uint, uint, uint, uint, uint, uint, uint){\r\n        require(RoleCheck[msg.sender] != 0,\"  \");\r\n        return(drivers[AddressToDriver[msg.sender]].FIO, drivers[AddressToDriver[msg.sender]].licenseid, drivers[AddressToDriver[msg.sender]].expire_date, drivers[AddressToDriver[msg.sender]].category, drivers[AddressToDriver[msg.sender]].exp_start, drivers[AddressToDriver[msg.sender]].accidents, drivers[AddressToDriver[msg.sender]].unpayed_fines, drivers[AddressToDriver[msg.sender]].insurance_deposit);\r\n    }\r\n    function driverRegistration(string memory FIO, uint accidents, uint unpayed_fines, uint exp_start) public {\r\n        require(RoleCheck[msg.sender] == 0, \"  \");\r\n        drivers.push(Driver(FIO, 0, 0, 0, exp_start, accidents, unpayed_fines, 0, false, false,false,false, msg.sender));\r\n        RoleCheck[msg.sender] = 2;\r\n        AddressToDriver[msg.sender] = drivers.length - 1;\r\n    }\r\n    function licenseRegistration(uint licenseid, uint expire_date, uint category) public {\r\n        require(RoleCheck[msg.sender] != 0,\"  \");\r\n        require(LicenseIdToDriverAddress[licenseid] == default_address, \"   \");\r\n        drivers[AddressToDriver[msg.sender]].licenseid = licenseid;\r\n        drivers[AddressToDriver[msg.sender]].expire_date = expire_date;\r\n        drivers[AddressToDriver[msg.sender]].category = category;\r\n        DriverCategory[msg.sender] = category;\r\n        LicenseIdToDriverAddress[licenseid] = msg.sender;\r\n    }\r\n    function vehicleRegistration(uint category, uint cost, uint exploitation) public {\r\n        require(DriverCategory[msg.sender] == category, \"     \");\r\n        vehicles.push(Vehicle(category, cost, exploitation, msg.sender));\r\n        DriverToVehicle[msg.sender] = vehicles.length - 1;\r\n    }\r\n    function insuranceDeposit() public payable {\r\n        require(vehicles[DriverToVehicle[msg.sender]].owner == msg.sender, \"   \");\r\n        require(drivers[AddressToDriver[msg.sender]].insurance_deposit == 0, \"    \");\r\n        drivers[AddressToDriver[msg.sender]].insurancerequest = true;\r\n    }\r\n    function insuranceAccept() public payable {\r\n        require(drivers[AddressToDriver[msg.sender]].insurancerequest == true);\r\n        if(10 - vehicles[DriverToVehicle[msg.sender]].exploitation < 0){\r\n            drivers[AddressToDriver[msg.sender]].insurance_deposit = vehicles[DriverToVehicle[msg.sender]].cost * ( (10 - vehicles[DriverToVehicle[msg.sender]].exploitation) - (10 - vehicles[DriverToVehicle[msg.sender]].exploitation)*2 )*1 + 20*drivers[AddressToDriver[msg.sender]].unpayed_fines + 100*drivers[AddressToDriver[msg.sender]].accidents- 20*((now - ((drivers[AddressToDriver[msg.sender]].exp_start-1970)*365*86400))/86400/365);//   100\r\n        }\r\n        else {\r\n            drivers[AddressToDriver[msg.sender]].insurance_deposit = vehicles[DriverToVehicle[msg.sender]].cost * (10 - vehicles[DriverToVehicle[msg.sender]].exploitation)*1 + 20*drivers[AddressToDriver[msg.sender]].unpayed_fines + 100*drivers[AddressToDriver[msg.sender]].accidents- 20*((now - ((drivers[AddressToDriver[msg.sender]].exp_start-1970)*365*86400))/86400/365);//   100\r\n        }\r\n    }\r\n    function fineIssue(uint licenseid) public {\r\n        require(RoleCheck[msg.sender] == 1, \"    \");\r\n        require(LicenseIdToDriverAddress[licenseid] == drivers[AddressToDriver[LicenseIdToDriverAddress[licenseid]]].solidityadr, \"     \");\r\n        drivers[AddressToDriver[LicenseIdToDriverAddress[licenseid]]].unpayed_fines++;\r\n        FineDiscount[drivers[AddressToDriver[LicenseIdToDriverAddress[licenseid]]].solidityadr] = block.timestamp + 5 * 5;\r\n    }\r\n    function finePay(uint licenseid) public payable{\r\n        require(msg.sender == drivers[AddressToDriver[LicenseIdToDriverAddress[licenseid]]].solidityadr, \"     \");\r\n        if (FineDiscount[LicenseIdToDriverAddress[licenseid]] < block.timestamp) {\r\n            require(msg.value == 10,\"   10\");\r\n            bank_address.transfer(10);\r\n        }\r\n        else {\r\n            require(msg.value == 5,\"   5\");\r\n            bank_address.transfer(5);\r\n        }\r\n        FineDiscount[drivers[AddressToDriver[LicenseIdToDriverAddress[licenseid]]].solidityadr] = 0;\r\n        drivers[AddressToDriver[LicenseIdToDriverAddress[licenseid]]].unpayed_fines--;\r\n    }\r\n    function accidentReg(uint licenseid) public {\r\n        require(RoleCheck[msg.sender] == 1, \"    \");\r\n        require(LicenseIdToDriverAddress[licenseid] == drivers[AddressToDriver[LicenseIdToDriverAddress[licenseid]]].solidityadr, \"     \");\r\n        drivers[AddressToDriver[LicenseIdToDriverAddress[licenseid]]].accidents++;\r\n        if (drivers[AddressToDriver[LicenseIdToDriverAddress[licenseid]]].insurance_deposit != 0) {\r\n            drivers[AddressToDriver[LicenseIdToDriverAddress[licenseid]]].needtobepayed = true;\r\n        }\r\n    }\r\n    function insurancePay(uint licenseid) public payable{\r\n        require(msg.sender == insurance_address, \"    \");\r\n        require(drivers[AddressToDriver[LicenseIdToDriverAddress[licenseid]]].needtobepayed == true);\r\n        require(msg.value == drivers[AddressToDriver[LicenseIdToDriverAddress[licenseid]]].insurance_deposit);\r\n        if (msg.sender.balance < drivers[AddressToDriver[LicenseIdToDriverAddress[licenseid]]].insurance_deposit*10) {\r\n            bankdebt = bankdebt + drivers[AddressToDriver[LicenseIdToDriverAddress[licenseid]]].insurance_deposit*10;\r\n        }\r\n    }\r\n    function viewdebt() public view returns(uint) {\r\n        require(msg.sender == bank_address, \"   \");\r\n        return(bankdebt - insurance_address.balance);\r\n    }\r\n    function insurancecredit() public payable {\r\n        require(msg.sender == bank_address || msg.sender == insurance_address, \"      \");\r\n        require(msg.value == bankdebt - insurance_address.balance, \"  !\");\r\n        insurance_address.transfer(bankdebt - insurance_address.balance);\r\n    }\r\n    function creditReturn() public payable {\r\n        require(msg.sender == insurance_address, \"    \");\r\n        if(insurance_address.balance <= bankdebt) {\r\n            require(msg.value == insurance_address.balance, \"        \");\r\n        }\r\n        else {\r\n            require(msg.value == bankdebt,\"     \");\r\n        }\r\n    }\r\n    function expire_date_secondsCount() public view returns (uint){\r\n        return(now - (((drivers[AddressToDriver[msg.sender]].expire_date%10000)*365*86400 + ((((drivers[AddressToDriver[msg.sender]].expire_date - (drivers[AddressToDriver[msg.sender]].expire_date%10000))/10000)%100)*30*86400) + (drivers[AddressToDriver[msg.sender]].expire_date - (drivers[AddressToDriver[msg.sender]].expire_date%1000000))/1000000*86400)-(1970*365*86400+1*30*86400+1*86400)));\r\n    }\r\n    function licenseRenewal(uint new_licenseid, uint new_expire_date, uint new_category) public {\r\n        require(expire_date_secondsCount() <= 30*86400,\"      \");\r\n        require(drivers[AddressToDriver[msg.sender]].expire_date == 0, \"    \");\r\n        require(LicenseIdToDriverAddress[new_licenseid] == default_address, \"   \");\r\n        LicenseIdToDriverAddress[drivers[AddressToDriver[msg.sender]].licenseid] = default_address;\r\n        drivers[AddressToDriver[msg.sender]].licenseid = new_licenseid;\r\n        drivers[AddressToDriver[msg.sender]].expire_date = new_expire_date;\r\n        drivers[AddressToDriver[msg.sender]].category = new_category;\r\n    }\r\n\r\n}\r\n",
  "sourcePath": "C:/Users//Desktop/driver/contracts/Driver.sol",
  "compiler": {
    "name": "solc",
    "version": "0.5.1+commit.c8a2cb62.Emscripten.clang"
  },
  "schemaVersion": "3.2.4",
  "updatedAt": "2020-10-20T09:59:41.588Z",
  "networkType": "ethereum",
  "devdoc": {
    "methods": {}
  },
  "userdoc": {
    "methods": {}
  }
}